{
	"data": {
		"bytecode": {
			"linkReferences": {},
			"object": "608060405260018054739ee20a74588a1d89e028a2be4ccf842ac93521116001600160a01b031991821681178355600280548316821790556003805490921617815568056bc75e2d63100000600455686c6b935b8bbd4000006005556007600681905555601e6008556032600955600a808055600c55600d805460ff1916909117905534801561008d575f80fd5b505f80546001600160a01b031916339081178255604051909182917f8be0079c531659141344cd1fd0a4f28419497f9722a3daafe3b4186f6b6457e0908290a35060405163095ea7b360e01b8152739ac64cc6e4415144c455bd8e4837fea55603e5c360048201525f196024820152730fb3c077479113df18f9f51dc282b09bb04610009063095ea7b3906044016020604051808303815f875af1158015610137573d5f803e3d5ffd5b505050506040513d601f19601f8201168201806040525081019061015b9190610161565b50610187565b5f60208284031215610171575f80fd5b81518015158114610180575f80fd5b9392505050565b6118de806101945f395ff3fe608060405234801561000f575f80fd5b50600436106101f2575f3560e01c8063817b1cd211610114578063b2118a8d116100a9578063d3a8eb4b11610079578063d3a8eb4b1461045a578063e078e9f714610463578063f0fa55a914610476578063f2fde38b14610489578063fbfa77cf1461049c575f80fd5b8063b2118a8d146103fc578063be9a65551461040f578063c54e44eb1461042c578063c63a695c14610447575f80fd5b80639665e82a116100e45780639665e82a146103ce5780639718a93b146103d75780639b2cb5d8146103ea578063b1bb9cd7146103f3575f80fd5b8063817b1cd214610399578063847239a7146103a257806387b14302146103b55780638da5cb5b146103be575f80fd5b8063390d12191161018a5780635f48f3931161015a5780635f48f3931461035a57806368e24327146103635780636d090bd514610376578063715018a614610391575f80fd5b8063390d12191461032d5780633e032a3b146103355780633ff42b921461033e5780634a5064a914610351575f80fd5b80631959a002116101c55780631959a002146102395780632523ff0c146102d157806330b9ea28146102f257806332fe7b26146102fa575f80fd5b806304824e70146101f6578063058df89f1461020b5780630c51b88f1461021e5780630e8ff10514610231575b5f80fd5b6102096102043660046114f8565b6104af565b005b610209610219366004611518565b610517565b61020961022c366004611538565b61054b565b610209610bc9565b61028d6102473660046114f8565b600e6020525f908152604090208054600182015460028301546003840154600485015460058601546006909601546001600160a01b039095169593949293919290919087565b604080516001600160a01b0390981688526020880196909652948601939093526060850191909152608084015260a083015260c082015260e0015b60405180910390f35b6102e46102df3660046114f8565b610d0c565b6040519081526020016102c8565b6102e4610dc8565b610315739ac64cc6e4415144c455bd8e4837fea55603e5c381565b6040516001600160a01b0390911681526020016102c8565b610209610f1b565b6102e4600c5481565b600254610315906001600160a01b031681565b6102e460075481565b6102e460055481565b610209610371366004611578565b610fac565b61031573372319bbffde74707aed44dd432c675a574a077081565b610209610fe8565b6102e4600b5481565b6102e46103b03660046114f8565b611059565b6102e4600a5481565b5f546001600160a01b0316610315565b6102e460065481565b6102096103e5366004611593565b6110f5565b6102e460045481565b6102e460095481565b61020961040a3660046115c4565b61114c565b600d5461041c9060ff1681565b60405190151581526020016102c8565b610315730fb3c077479113df18f9f51dc282b09bb046100081565b600154610315906001600160a01b031681565b6102e460085481565b6102096104713660046115fd565b6111aa565b610209610484366004611634565b6111ea565b6102096104973660046114f8565b611218565b600354610315906001600160a01b031681565b5f546001600160a01b031633146104e15760405162461bcd60e51b81526004016104d89061164b565b60405180910390fd5b6040516001600160a01b038216904780156108fc02915f818181858888f19350505050158015610513573d5f803e3d5ffd5b5050565b5f546001600160a01b031633146105405760405162461bcd60e51b81526004016104d89061164b565b600491909155600555565b336001600160a01b0384160361055f575f80fd5b600454821015801561057357506005548211155b61057b575f80fd5b80600f148061058a575080601e145b610592575f80fd5b335f908152600e60205260409020600f8290036105bc576001810154156105b7575f80fd5b6105ca565b6003810154156105ca575f80fd5b80546001600160a01b03161580156105ea57506001600160a01b03841615155b156106795780546001600160a01b0319166001600160a01b03851690811782555f908152600e6020526040812060050180549161062683611694565b90915550506001600160a01b038085165f908152600e6020526040902054168015610677576001600160a01b0381165f908152600e6020526040812060050180549161067183611694565b91905055505b505b6040516323b872dd60e01b815233600482015230602482015260448101849052730fb3c077479113df18f9f51dc282b09bb0461000906323b872dd906064016020604051808303815f875af11580156106d4573d5f803e3d5ffd5b505050506040513d601f19601f820116820180604052508101906106f891906116ac565b505f60646006548561070a91906116c7565b61071491906116e4565b90505f60646007548661072791906116c7565b61073191906116e4565b83549091506001600160a01b0316801561095c576001600160a01b0381165f908152600e60205260408120600601805485929061076f908490611703565b909155505060405163a9059cbb60e01b81526001600160a01b038216600482015260248101849052730fb3c077479113df18f9f51dc282b09bb04610009063a9059cbb906044016020604051808303815f875af11580156107d2573d5f803e3d5ffd5b505050506040513d601f19601f820116820180604052508101906107f691906116ac565b506001600160a01b038082165f908152600e60205260409020541680156108ce576001600160a01b0381165f908152600e602052604081206006018054859290610841908490611703565b909155505060405163a9059cbb60e01b81526001600160a01b038216600482015260248101849052730fb3c077479113df18f9f51dc282b09bb04610009063a9059cbb906044016020604051808303815f875af11580156108a4573d5f803e3d5ffd5b505050506040513d601f19601f820116820180604052508101906108c891906116ac565b50610956565b60015460405163a9059cbb60e01b81526001600160a01b03909116600482015260248101849052730fb3c077479113df18f9f51dc282b09bb04610009063a9059cbb906044016020604051808303815f875af1158015610930573d5f803e3d5ffd5b505050506040513d601f19601f8201168201806040525081019061095491906116ac565b505b506109fc565b600154730fb3c077479113df18f9f51dc282b09bb04610009063a9059cbb906001600160a01b031661098e8587611703565b6040516001600160e01b031960e085901b1681526001600160a01b03909216600483015260248201526044016020604051808303815f875af11580156109d6573d5f803e3d5ffd5b505050506040513d601f19601f820116820180604052508101906109fa91906116ac565b505b610a1e606460085488610a0f91906116c7565b610a1991906116e4565b6112ff565b600354600954730fb3c077479113df18f9f51dc282b09bb04610009163a9059cbb916001600160a01b0390911690606490610a59908b6116c7565b610a6391906116e4565b6040516001600160e01b031960e085901b1681526001600160a01b03909216600483015260248201526044016020604051808303815f875af1158015610aab573d5f803e3d5ffd5b505050506040513d601f19601f82011682018060405250810190610acf91906116ac565b50600254600a54730fb3c077479113df18f9f51dc282b09bb04610009163a9059cbb916001600160a01b0390911690606490610b0b908b6116c7565b610b1591906116e4565b6040516001600160e01b031960e085901b1681526001600160a01b03909216600483015260248201526044016020604051808303815f875af1158015610b5d573d5f803e3d5ffd5b505050506040513d601f19601f82011682018060405250810190610b8191906116ac565b5084600f03610b9c5760018401869055426002850155610baa565b600384018690554260048501555b85600b5f828254610bbb9190611703565b909155505050505050505050565b335f908152600e602052604090206002810154610be9906213c680611703565b421015610bf4575f80fd5b5f610bfe33611059565b90505f8111610c435760405162461bcd60e51b8152602060048201526011602482015270139bc81c195b991a5b99c81c995dd85c99607a1b60448201526064016104d8565b5f6001830181905560028301819055610c5a610dc8565b610c6c83670de0b6b3a76400006116c7565b610c7691906116e4565b6003546040516323b872dd60e01b81526001600160a01b0390911660048201523360248201526044810182905290915073372319bbffde74707aed44dd432c675a574a0770906323b872dd906064015b6020604051808303815f875af1158015610ce2573d5f803e3d5ffd5b505050506040513d601f19601f82011682018060405250810190610d0691906116ac565b50505050565b6001600160a01b0381165f908152600e6020526040812060038101548203610d3657505f92915050565b5f606482600301546024610d4a91906116c7565b610d5491906116e4565b9050816004015462278d00610d699190611703565b4210610d76579392505050565b5f620151806103e88460030154600c610d8f91906116c7565b610d9991906116e4565b610da391906116e4565b9050826004015442610db59190611716565b610dbf90826116c7565b95945050505050565b6040805160028082526060820183525f928392919060208301908036833701905050905073372319bbffde74707aed44dd432c675a574a0770815f81518110610e1357610e1361173d565b60200260200101906001600160a01b031690816001600160a01b031681525050730fb3c077479113df18f9f51dc282b09bb046100081600181518110610e5b57610e5b61173d565b6001600160a01b039092166020928302919091019091015260405163d06ca61f60e01b81525f90739ac64cc6e4415144c455bd8e4837fea55603e5c39063d06ca61f90610eb690670de0b6b3a7640000908690600401611794565b5f60405180830381865afa158015610ed0573d5f803e3d5ffd5b505050506040513d5f823e601f3d908101601f19168201604052610ef791908101906117b4565b905080600181518110610f0c57610f0c61173d565b60200260200101519250505090565b335f908152600e602052604090206004810154610f3b9062278d00611703565b421015610f46575f80fd5b5f610f5033610d0c565b90505f8111610f955760405162461bcd60e51b8152602060048201526011602482015270139bc81c195b991a5b99c81c995dd85c99607a1b60448201526064016104d8565b5f6003830181905560048301819055610c5a610dc8565b5f546001600160a01b03163314610fd55760405162461bcd60e51b81526004016104d89061164b565b600d805460ff1916911515919091179055565b5f546001600160a01b031633146110115760405162461bcd60e51b81526004016104d89061164b565b5f80546040516001600160a01b03909116907f8be0079c531659141344cd1fd0a4f28419497f9722a3daafe3b4186f6b6457e0908390a35f80546001600160a01b0319169055565b6001600160a01b0381165f908152600e602052604081206001810154820361108357505f92915050565b5f60648260010154600f61109791906116c7565b6110a191906116e4565b905081600201546213c6806110b69190611703565b42106110c3579392505050565b5f62015180606484600101546110d991906116e4565b6110e391906116e4565b9050826002015442610db59190611716565b5f546001600160a01b0316331461111e5760405162461bcd60e51b81526004016104d89061164b565b600280546001600160a01b039384166001600160a01b03199182161790915560038054929093169116179055565b5f546001600160a01b031633146111755760405162461bcd60e51b81526004016104d89061164b565b60405163a9059cbb60e01b81526001600160a01b0383811660048301526024820183905284169063a9059cbb90604401610cc6565b5f546001600160a01b031633146111d35760405162461bcd60e51b81526004016104d89061164b565b600694909455600792909255600855600955600a55565b5f546001600160a01b031633146112135760405162461bcd60e51b81526004016104d89061164b565b600c55565b5f546001600160a01b031633146112415760405162461bcd60e51b81526004016104d89061164b565b6001600160a01b0381166112a65760405162461bcd60e51b815260206004820152602660248201527f4f776e61626c653a206e6577206f776e657220697320746865207a65726f206160448201526564647265737360d01b60648201526084016104d8565b5f80546040516001600160a01b03808516939216917f8be0079c531659141344cd1fd0a4f28419497f9722a3daafe3b4186f6b6457e091a35f80546001600160a01b0319166001600160a01b0392909216919091179055565b6040805160028082526060820183525f92602083019080368337019050509050730fb3c077479113df18f9f51dc282b09bb0461000815f815181106113465761134661173d565b60200260200101906001600160a01b031690816001600160a01b03168152505073372319bbffde74707aed44dd432c675a574a07708160018151811061138e5761138e61173d565b6001600160a01b039092166020928302919091019091015260405163d06ca61f60e01b81525f90739ac64cc6e4415144c455bd8e4837fea55603e5c39063d06ca61f906113e19086908690600401611794565b5f60405180830381865afa1580156113fb573d5f803e3d5ffd5b505050506040513d5f823e601f3d908101601f1916820160405261142291908101906117b4565b9050739ac64cc6e4415144c455bd8e4837fea55603e5c36001600160a01b0316635c11d795846064600c5460646114599190611716565b8560018151811061146c5761146c61173d565b602002602001015161147e91906116c7565b61148891906116e4565b855f426040518663ffffffff1660e01b81526004016114ab95949392919061186d565b5f604051808303815f87803b1580156114c2575f80fd5b505af11580156114d4573d5f803e3d5ffd5b50505050505050565b80356001600160a01b03811681146114f3575f80fd5b919050565b5f60208284031215611508575f80fd5b611511826114dd565b9392505050565b5f8060408385031215611529575f80fd5b50508035926020909101359150565b5f805f6060848603121561154a575f80fd5b611553846114dd565b95602085013595506040909401359392505050565b8015158114611575575f80fd5b50565b5f60208284031215611588575f80fd5b813561151181611568565b5f80604083850312156115a4575f80fd5b6115ad836114dd565b91506115bb602084016114dd565b90509250929050565b5f805f606084860312156115d6575f80fd5b6115df846114dd565b92506115ed602085016114dd565b9150604084013590509250925092565b5f805f805f60a08688031215611611575f80fd5b505083359560208501359550604085013594606081013594506080013592509050565b5f60208284031215611644575f80fd5b5035919050565b6020808252818101527f4f776e61626c653a2063616c6c6572206973206e6f7420746865206f776e6572604082015260600190565b634e487b7160e01b5f52601160045260245ffd5b5f600182016116a5576116a5611680565b5060010190565b5f602082840312156116bc575f80fd5b815161151181611568565b80820281158282048414176116de576116de611680565b92915050565b5f826116fe57634e487b7160e01b5f52601260045260245ffd5b500490565b808201808211156116de576116de611680565b818103818111156116de576116de611680565b634e487b7160e01b5f52604160045260245ffd5b634e487b7160e01b5f52603260045260245ffd5b5f815180845260208085019450602084015f5b838110156117895781516001600160a01b031687529582019590820190600101611764565b509495945050505050565b828152604060208201525f6117ac6040830184611751565b949350505050565b5f60208083850312156117c5575f80fd5b825167ffffffffffffffff808211156117dc575f80fd5b818501915085601f8301126117ef575f80fd5b81518181111561180157611801611729565b8060051b604051601f19603f8301168101818110858211171561182657611826611729565b604052918252848201925083810185019188831115611843575f80fd5b938501935b8285101561186157845184529385019392850192611848565b98975050505050505050565b85815284602082015260a060408201525f61188b60a0830186611751565b6001600160a01b039490941660608301525060800152939250505056fea2646970667358221220e32db9348acea1c443e5aae8fb31e779ac6a7e3bae4c73efe8b5f363a14a03f364736f6c63430008180033",
			"opcodes": "PUSH1 0x80 PUSH1 0x40 MSTORE PUSH1 0x1 DUP1 SLOAD PUSH20 0x9EE20A74588A1D89E028A2BE4CCF842AC9352111 PUSH1 0x1 PUSH1 0x1 PUSH1 0xA0 SHL SUB NOT SWAP2 DUP3 AND DUP2 OR DUP4 SSTORE PUSH1 0x2 DUP1 SLOAD DUP4 AND DUP3 OR SWAP1 SSTORE PUSH1 0x3 DUP1 SLOAD SWAP1 SWAP3 AND OR DUP2 SSTORE PUSH9 0x56BC75E2D63100000 PUSH1 0x4 SSTORE PUSH9 0x6C6B935B8BBD400000 PUSH1 0x5 SSTORE PUSH1 0x7 PUSH1 0x6 DUP2 SWAP1 SSTORE SSTORE PUSH1 0x1E PUSH1 0x8 SSTORE PUSH1 0x32 PUSH1 0x9 SSTORE PUSH1 0xA DUP1 DUP1 SSTORE PUSH1 0xC SSTORE PUSH1 0xD DUP1 SLOAD PUSH1 0xFF NOT AND SWAP1 SWAP2 OR SWAP1 SSTORE CALLVALUE DUP1 ISZERO PUSH2 0x8D JUMPI PUSH0 DUP1 REVERT JUMPDEST POP PUSH0 DUP1 SLOAD PUSH1 0x1 PUSH1 0x1 PUSH1 0xA0 SHL SUB NOT AND CALLER SWAP1 DUP2 OR DUP3 SSTORE PUSH1 0x40 MLOAD SWAP1 SWAP2 DUP3 SWAP2 PUSH32 0x8BE0079C531659141344CD1FD0A4F28419497F9722A3DAAFE3B4186F6B6457E0 SWAP1 DUP3 SWAP1 LOG3 POP PUSH1 0x40 MLOAD PUSH4 0x95EA7B3 PUSH1 0xE0 SHL DUP2 MSTORE PUSH20 0x9AC64CC6E4415144C455BD8E4837FEA55603E5C3 PUSH1 0x4 DUP3 ADD MSTORE PUSH0 NOT PUSH1 0x24 DUP3 ADD MSTORE PUSH20 0xFB3C077479113DF18F9F51DC282B09BB0461000 SWAP1 PUSH4 0x95EA7B3 SWAP1 PUSH1 0x44 ADD PUSH1 0x20 PUSH1 0x40 MLOAD DUP1 DUP4 SUB DUP2 PUSH0 DUP8 GAS CALL ISZERO DUP1 ISZERO PUSH2 0x137 JUMPI RETURNDATASIZE PUSH0 DUP1 RETURNDATACOPY RETURNDATASIZE PUSH0 REVERT JUMPDEST POP POP POP POP PUSH1 0x40 MLOAD RETURNDATASIZE PUSH1 0x1F NOT PUSH1 0x1F DUP3 ADD AND DUP3 ADD DUP1 PUSH1 0x40 MSTORE POP DUP2 ADD SWAP1 PUSH2 0x15B SWAP2 SWAP1 PUSH2 0x161 JUMP JUMPDEST POP PUSH2 0x187 JUMP JUMPDEST PUSH0 PUSH1 0x20 DUP3 DUP5 SUB SLT ISZERO PUSH2 0x171 JUMPI PUSH0 DUP1 REVERT JUMPDEST DUP2 MLOAD DUP1 ISZERO ISZERO DUP2 EQ PUSH2 0x180 JUMPI PUSH0 DUP1 REVERT JUMPDEST SWAP4 SWAP3 POP POP POP JUMP JUMPDEST PUSH2 0x18DE DUP1 PUSH2 0x194 PUSH0 CODECOPY PUSH0 RETURN INVALID PUSH1 0x80 PUSH1 0x40 MSTORE CALLVALUE DUP1 ISZERO PUSH2 0xF JUMPI PUSH0 DUP1 REVERT JUMPDEST POP PUSH1 0x4 CALLDATASIZE LT PUSH2 0x1F2 JUMPI PUSH0 CALLDATALOAD PUSH1 0xE0 SHR DUP1 PUSH4 0x817B1CD2 GT PUSH2 0x114 JUMPI DUP1 PUSH4 0xB2118A8D GT PUSH2 0xA9 JUMPI DUP1 PUSH4 0xD3A8EB4B GT PUSH2 0x79 JUMPI DUP1 PUSH4 0xD3A8EB4B EQ PUSH2 0x45A JUMPI DUP1 PUSH4 0xE078E9F7 EQ PUSH2 0x463 JUMPI DUP1 PUSH4 0xF0FA55A9 EQ PUSH2 0x476 JUMPI DUP1 PUSH4 0xF2FDE38B EQ PUSH2 0x489 JUMPI DUP1 PUSH4 0xFBFA77CF EQ PUSH2 0x49C JUMPI PUSH0 DUP1 REVERT JUMPDEST DUP1 PUSH4 0xB2118A8D EQ PUSH2 0x3FC JUMPI DUP1 PUSH4 0xBE9A6555 EQ PUSH2 0x40F JUMPI DUP1 PUSH4 0xC54E44EB EQ PUSH2 0x42C JUMPI DUP1 PUSH4 0xC63A695C EQ PUSH2 0x447 JUMPI PUSH0 DUP1 REVERT JUMPDEST DUP1 PUSH4 0x9665E82A GT PUSH2 0xE4 JUMPI DUP1 PUSH4 0x9665E82A EQ PUSH2 0x3CE JUMPI DUP1 PUSH4 0x9718A93B EQ PUSH2 0x3D7 JUMPI DUP1 PUSH4 0x9B2CB5D8 EQ PUSH2 0x3EA JUMPI DUP1 PUSH4 0xB1BB9CD7 EQ PUSH2 0x3F3 JUMPI PUSH0 DUP1 REVERT JUMPDEST DUP1 PUSH4 0x817B1CD2 EQ PUSH2 0x399 JUMPI DUP1 PUSH4 0x847239A7 EQ PUSH2 0x3A2 JUMPI DUP1 PUSH4 0x87B14302 EQ PUSH2 0x3B5 JUMPI DUP1 PUSH4 0x8DA5CB5B EQ PUSH2 0x3BE JUMPI PUSH0 DUP1 REVERT JUMPDEST DUP1 PUSH4 0x390D1219 GT PUSH2 0x18A JUMPI DUP1 PUSH4 0x5F48F393 GT PUSH2 0x15A JUMPI DUP1 PUSH4 0x5F48F393 EQ PUSH2 0x35A JUMPI DUP1 PUSH4 0x68E24327 EQ PUSH2 0x363 JUMPI DUP1 PUSH4 0x6D090BD5 EQ PUSH2 0x376 JUMPI DUP1 PUSH4 0x715018A6 EQ PUSH2 0x391 JUMPI PUSH0 DUP1 REVERT JUMPDEST DUP1 PUSH4 0x390D1219 EQ PUSH2 0x32D JUMPI DUP1 PUSH4 0x3E032A3B EQ PUSH2 0x335 JUMPI DUP1 PUSH4 0x3FF42B92 EQ PUSH2 0x33E JUMPI DUP1 PUSH4 0x4A5064A9 EQ PUSH2 0x351 JUMPI PUSH0 DUP1 REVERT JUMPDEST DUP1 PUSH4 0x1959A002 GT PUSH2 0x1C5 JUMPI DUP1 PUSH4 0x1959A002 EQ PUSH2 0x239 JUMPI DUP1 PUSH4 0x2523FF0C EQ PUSH2 0x2D1 JUMPI DUP1 PUSH4 0x30B9EA28 EQ PUSH2 0x2F2 JUMPI DUP1 PUSH4 0x32FE7B26 EQ PUSH2 0x2FA JUMPI PUSH0 DUP1 REVERT JUMPDEST DUP1 PUSH4 0x4824E70 EQ PUSH2 0x1F6 JUMPI DUP1 PUSH4 0x58DF89F EQ PUSH2 0x20B JUMPI DUP1 PUSH4 0xC51B88F EQ PUSH2 0x21E JUMPI DUP1 PUSH4 0xE8FF105 EQ PUSH2 0x231 JUMPI JUMPDEST PUSH0 DUP1 REVERT JUMPDEST PUSH2 0x209 PUSH2 0x204 CALLDATASIZE PUSH1 0x4 PUSH2 0x14F8 JUMP JUMPDEST PUSH2 0x4AF JUMP JUMPDEST STOP JUMPDEST PUSH2 0x209 PUSH2 0x219 CALLDATASIZE PUSH1 0x4 PUSH2 0x1518 JUMP JUMPDEST PUSH2 0x517 JUMP JUMPDEST PUSH2 0x209 PUSH2 0x22C CALLDATASIZE PUSH1 0x4 PUSH2 0x1538 JUMP JUMPDEST PUSH2 0x54B JUMP JUMPDEST PUSH2 0x209 PUSH2 0xBC9 JUMP JUMPDEST PUSH2 0x28D PUSH2 0x247 CALLDATASIZE PUSH1 0x4 PUSH2 0x14F8 JUMP JUMPDEST PUSH1 0xE PUSH1 0x20 MSTORE PUSH0 SWAP1 DUP2 MSTORE PUSH1 0x40 SWAP1 KECCAK256 DUP1 SLOAD PUSH1 0x1 DUP3 ADD SLOAD PUSH1 0x2 DUP4 ADD SLOAD PUSH1 0x3 DUP5 ADD SLOAD PUSH1 0x4 DUP6 ADD SLOAD PUSH1 0x5 DUP7 ADD SLOAD PUSH1 0x6 SWAP1 SWAP7 ADD SLOAD PUSH1 0x1 PUSH1 0x1 PUSH1 0xA0 SHL SUB SWAP1 SWAP6 AND SWAP6 SWAP4 SWAP5 SWAP3 SWAP4 SWAP2 SWAP3 SWAP1 SWAP2 SWAP1 DUP8 JUMP JUMPDEST PUSH1 0x40 DUP1 MLOAD PUSH1 0x1 PUSH1 0x1 PUSH1 0xA0 SHL SUB SWAP1 SWAP9 AND DUP9 MSTORE PUSH1 0x20 DUP9 ADD SWAP7 SWAP1 SWAP7 MSTORE SWAP5 DUP7 ADD SWAP4 SWAP1 SWAP4 MSTORE PUSH1 0x60 DUP6 ADD SWAP2 SWAP1 SWAP2 MSTORE PUSH1 0x80 DUP5 ADD MSTORE PUSH1 0xA0 DUP4 ADD MSTORE PUSH1 0xC0 DUP3 ADD MSTORE PUSH1 0xE0 ADD JUMPDEST PUSH1 0x40 MLOAD DUP1 SWAP2 SUB SWAP1 RETURN JUMPDEST PUSH2 0x2E4 PUSH2 0x2DF CALLDATASIZE PUSH1 0x4 PUSH2 0x14F8 JUMP JUMPDEST PUSH2 0xD0C JUMP JUMPDEST PUSH1 0x40 MLOAD SWAP1 DUP2 MSTORE PUSH1 0x20 ADD PUSH2 0x2C8 JUMP JUMPDEST PUSH2 0x2E4 PUSH2 0xDC8 JUMP JUMPDEST PUSH2 0x315 PUSH20 0x9AC64CC6E4415144C455BD8E4837FEA55603E5C3 DUP2 JUMP JUMPDEST PUSH1 0x40 MLOAD PUSH1 0x1 PUSH1 0x1 PUSH1 0xA0 SHL SUB SWAP1 SWAP2 AND DUP2 MSTORE PUSH1 0x20 ADD PUSH2 0x2C8 JUMP JUMPDEST PUSH2 0x209 PUSH2 0xF1B JUMP JUMPDEST PUSH2 0x2E4 PUSH1 0xC SLOAD DUP2 JUMP JUMPDEST PUSH1 0x2 SLOAD PUSH2 0x315 SWAP1 PUSH1 0x1 PUSH1 0x1 PUSH1 0xA0 SHL SUB AND DUP2 JUMP JUMPDEST PUSH2 0x2E4 PUSH1 0x7 SLOAD DUP2 JUMP JUMPDEST PUSH2 0x2E4 PUSH1 0x5 SLOAD DUP2 JUMP JUMPDEST PUSH2 0x209 PUSH2 0x371 CALLDATASIZE PUSH1 0x4 PUSH2 0x1578 JUMP JUMPDEST PUSH2 0xFAC JUMP JUMPDEST PUSH2 0x315 PUSH20 0x372319BBFFDE74707AED44DD432C675A574A0770 DUP2 JUMP JUMPDEST PUSH2 0x209 PUSH2 0xFE8 JUMP JUMPDEST PUSH2 0x2E4 PUSH1 0xB SLOAD DUP2 JUMP JUMPDEST PUSH2 0x2E4 PUSH2 0x3B0 CALLDATASIZE PUSH1 0x4 PUSH2 0x14F8 JUMP JUMPDEST PUSH2 0x1059 JUMP JUMPDEST PUSH2 0x2E4 PUSH1 0xA SLOAD DUP2 JUMP JUMPDEST PUSH0 SLOAD PUSH1 0x1 PUSH1 0x1 PUSH1 0xA0 SHL SUB AND PUSH2 0x315 JUMP JUMPDEST PUSH2 0x2E4 PUSH1 0x6 SLOAD DUP2 JUMP JUMPDEST PUSH2 0x209 PUSH2 0x3E5 CALLDATASIZE PUSH1 0x4 PUSH2 0x1593 JUMP JUMPDEST PUSH2 0x10F5 JUMP JUMPDEST PUSH2 0x2E4 PUSH1 0x4 SLOAD DUP2 JUMP JUMPDEST PUSH2 0x2E4 PUSH1 0x9 SLOAD DUP2 JUMP JUMPDEST PUSH2 0x209 PUSH2 0x40A CALLDATASIZE PUSH1 0x4 PUSH2 0x15C4 JUMP JUMPDEST PUSH2 0x114C JUMP JUMPDEST PUSH1 0xD SLOAD PUSH2 0x41C SWAP1 PUSH1 0xFF AND DUP2 JUMP JUMPDEST PUSH1 0x40 MLOAD SWAP1 ISZERO ISZERO DUP2 MSTORE PUSH1 0x20 ADD PUSH2 0x2C8 JUMP JUMPDEST PUSH2 0x315 PUSH20 0xFB3C077479113DF18F9F51DC282B09BB0461000 DUP2 JUMP JUMPDEST PUSH1 0x1 SLOAD PUSH2 0x315 SWAP1 PUSH1 0x1 PUSH1 0x1 PUSH1 0xA0 SHL SUB AND DUP2 JUMP JUMPDEST PUSH2 0x2E4 PUSH1 0x8 SLOAD DUP2 JUMP JUMPDEST PUSH2 0x209 PUSH2 0x471 CALLDATASIZE PUSH1 0x4 PUSH2 0x15FD JUMP JUMPDEST PUSH2 0x11AA JUMP JUMPDEST PUSH2 0x209 PUSH2 0x484 CALLDATASIZE PUSH1 0x4 PUSH2 0x1634 JUMP JUMPDEST PUSH2 0x11EA JUMP JUMPDEST PUSH2 0x209 PUSH2 0x497 CALLDATASIZE PUSH1 0x4 PUSH2 0x14F8 JUMP JUMPDEST PUSH2 0x1218 JUMP JUMPDEST PUSH1 0x3 SLOAD PUSH2 0x315 SWAP1 PUSH1 0x1 PUSH1 0x1 PUSH1 0xA0 SHL SUB AND DUP2 JUMP JUMPDEST PUSH0 SLOAD PUSH1 0x1 PUSH1 0x1 PUSH1 0xA0 SHL SUB AND CALLER EQ PUSH2 0x4E1 JUMPI PUSH1 0x40 MLOAD PUSH3 0x461BCD PUSH1 0xE5 SHL DUP2 MSTORE PUSH1 0x4 ADD PUSH2 0x4D8 SWAP1 PUSH2 0x164B JUMP JUMPDEST PUSH1 0x40 MLOAD DUP1 SWAP2 SUB SWAP1 REVERT JUMPDEST PUSH1 0x40 MLOAD PUSH1 0x1 PUSH1 0x1 PUSH1 0xA0 SHL SUB DUP3 AND SWAP1 SELFBALANCE DUP1 ISZERO PUSH2 0x8FC MUL SWAP2 PUSH0 DUP2 DUP2 DUP2 DUP6 DUP9 DUP9 CALL SWAP4 POP POP POP POP ISZERO DUP1 ISZERO PUSH2 0x513 JUMPI RETURNDATASIZE PUSH0 DUP1 RETURNDATACOPY RETURNDATASIZE PUSH0 REVERT JUMPDEST POP POP JUMP JUMPDEST PUSH0 SLOAD PUSH1 0x1 PUSH1 0x1 PUSH1 0xA0 SHL SUB AND CALLER EQ PUSH2 0x540 JUMPI PUSH1 0x40 MLOAD PUSH3 0x461BCD PUSH1 0xE5 SHL DUP2 MSTORE PUSH1 0x4 ADD PUSH2 0x4D8 SWAP1 PUSH2 0x164B JUMP JUMPDEST PUSH1 0x4 SWAP2 SWAP1 SWAP2 SSTORE PUSH1 0x5 SSTORE JUMP JUMPDEST CALLER PUSH1 0x1 PUSH1 0x1 PUSH1 0xA0 SHL SUB DUP5 AND SUB PUSH2 0x55F JUMPI PUSH0 DUP1 REVERT JUMPDEST PUSH1 0x4 SLOAD DUP3 LT ISZERO DUP1 ISZERO PUSH2 0x573 JUMPI POP PUSH1 0x5 SLOAD DUP3 GT ISZERO JUMPDEST PUSH2 0x57B JUMPI PUSH0 DUP1 REVERT JUMPDEST DUP1 PUSH1 0xF EQ DUP1 PUSH2 0x58A JUMPI POP DUP1 PUSH1 0x1E EQ JUMPDEST PUSH2 0x592 JUMPI PUSH0 DUP1 REVERT JUMPDEST CALLER PUSH0 SWAP1 DUP2 MSTORE PUSH1 0xE PUSH1 0x20 MSTORE PUSH1 0x40 SWAP1 KECCAK256 PUSH1 0xF DUP3 SWAP1 SUB PUSH2 0x5BC JUMPI PUSH1 0x1 DUP2 ADD SLOAD ISZERO PUSH2 0x5B7 JUMPI PUSH0 DUP1 REVERT JUMPDEST PUSH2 0x5CA JUMP JUMPDEST PUSH1 0x3 DUP2 ADD SLOAD ISZERO PUSH2 0x5CA JUMPI PUSH0 DUP1 REVERT JUMPDEST DUP1 SLOAD PUSH1 0x1 PUSH1 0x1 PUSH1 0xA0 SHL SUB AND ISZERO DUP1 ISZERO PUSH2 0x5EA JUMPI POP PUSH1 0x1 PUSH1 0x1 PUSH1 0xA0 SHL SUB DUP5 AND ISZERO ISZERO JUMPDEST ISZERO PUSH2 0x679 JUMPI DUP1 SLOAD PUSH1 0x1 PUSH1 0x1 PUSH1 0xA0 SHL SUB NOT AND PUSH1 0x1 PUSH1 0x1 PUSH1 0xA0 SHL SUB DUP6 AND SWAP1 DUP2 OR DUP3 SSTORE PUSH0 SWAP1 DUP2 MSTORE PUSH1 0xE PUSH1 0x20 MSTORE PUSH1 0x40 DUP2 KECCAK256 PUSH1 0x5 ADD DUP1 SLOAD SWAP2 PUSH2 0x626 DUP4 PUSH2 0x1694 JUMP JUMPDEST SWAP1 SWAP2 SSTORE POP POP PUSH1 0x1 PUSH1 0x1 PUSH1 0xA0 SHL SUB DUP1 DUP6 AND PUSH0 SWAP1 DUP2 MSTORE PUSH1 0xE PUSH1 0x20 MSTORE PUSH1 0x40 SWAP1 KECCAK256 SLOAD AND DUP1 ISZERO PUSH2 0x677 JUMPI PUSH1 0x1 PUSH1 0x1 PUSH1 0xA0 SHL SUB DUP2 AND PUSH0 SWAP1 DUP2 MSTORE PUSH1 0xE PUSH1 0x20 MSTORE PUSH1 0x40 DUP2 KECCAK256 PUSH1 0x5 ADD DUP1 SLOAD SWAP2 PUSH2 0x671 DUP4 PUSH2 0x1694 JUMP JUMPDEST SWAP2 SWAP1 POP SSTORE POP JUMPDEST POP JUMPDEST PUSH1 0x40 MLOAD PUSH4 0x23B872DD PUSH1 0xE0 SHL DUP2 MSTORE CALLER PUSH1 0x4 DUP3 ADD MSTORE ADDRESS PUSH1 0x24 DUP3 ADD MSTORE PUSH1 0x44 DUP2 ADD DUP5 SWAP1 MSTORE PUSH20 0xFB3C077479113DF18F9F51DC282B09BB0461000 SWAP1 PUSH4 0x23B872DD SWAP1 PUSH1 0x64 ADD PUSH1 0x20 PUSH1 0x40 MLOAD DUP1 DUP4 SUB DUP2 PUSH0 DUP8 GAS CALL ISZERO DUP1 ISZERO PUSH2 0x6D4 JUMPI RETURNDATASIZE PUSH0 DUP1 RETURNDATACOPY RETURNDATASIZE PUSH0 REVERT JUMPDEST POP POP POP POP PUSH1 0x40 MLOAD RETURNDATASIZE PUSH1 0x1F NOT PUSH1 0x1F DUP3 ADD AND DUP3 ADD DUP1 PUSH1 0x40 MSTORE POP DUP2 ADD SWAP1 PUSH2 0x6F8 SWAP2 SWAP1 PUSH2 0x16AC JUMP JUMPDEST POP PUSH0 PUSH1 0x64 PUSH1 0x6 SLOAD DUP6 PUSH2 0x70A SWAP2 SWAP1 PUSH2 0x16C7 JUMP JUMPDEST PUSH2 0x714 SWAP2 SWAP1 PUSH2 0x16E4 JUMP JUMPDEST SWAP1 POP PUSH0 PUSH1 0x64 PUSH1 0x7 SLOAD DUP7 PUSH2 0x727 SWAP2 SWAP1 PUSH2 0x16C7 JUMP JUMPDEST PUSH2 0x731 SWAP2 SWAP1 PUSH2 0x16E4 JUMP JUMPDEST DUP4 SLOAD SWAP1 SWAP2 POP PUSH1 0x1 PUSH1 0x1 PUSH1 0xA0 SHL SUB AND DUP1 ISZERO PUSH2 0x95C JUMPI PUSH1 0x1 PUSH1 0x1 PUSH1 0xA0 SHL SUB DUP2 AND PUSH0 SWAP1 DUP2 MSTORE PUSH1 0xE PUSH1 0x20 MSTORE PUSH1 0x40 DUP2 KECCAK256 PUSH1 0x6 ADD DUP1 SLOAD DUP6 SWAP3 SWAP1 PUSH2 0x76F SWAP1 DUP5 SWAP1 PUSH2 0x1703 JUMP JUMPDEST SWAP1 SWAP2 SSTORE POP POP PUSH1 0x40 MLOAD PUSH4 0xA9059CBB PUSH1 0xE0 SHL DUP2 MSTORE PUSH1 0x1 PUSH1 0x1 PUSH1 0xA0 SHL SUB DUP3 AND PUSH1 0x4 DUP3 ADD MSTORE PUSH1 0x24 DUP2 ADD DUP5 SWAP1 MSTORE PUSH20 0xFB3C077479113DF18F9F51DC282B09BB0461000 SWAP1 PUSH4 0xA9059CBB SWAP1 PUSH1 0x44 ADD PUSH1 0x20 PUSH1 0x40 MLOAD DUP1 DUP4 SUB DUP2 PUSH0 DUP8 GAS CALL ISZERO DUP1 ISZERO PUSH2 0x7D2 JUMPI RETURNDATASIZE PUSH0 DUP1 RETURNDATACOPY RETURNDATASIZE PUSH0 REVERT JUMPDEST POP POP POP POP PUSH1 0x40 MLOAD RETURNDATASIZE PUSH1 0x1F NOT PUSH1 0x1F DUP3 ADD AND DUP3 ADD DUP1 PUSH1 0x40 MSTORE POP DUP2 ADD SWAP1 PUSH2 0x7F6 SWAP2 SWAP1 PUSH2 0x16AC JUMP JUMPDEST POP PUSH1 0x1 PUSH1 0x1 PUSH1 0xA0 SHL SUB DUP1 DUP3 AND PUSH0 SWAP1 DUP2 MSTORE PUSH1 0xE PUSH1 0x20 MSTORE PUSH1 0x40 SWAP1 KECCAK256 SLOAD AND DUP1 ISZERO PUSH2 0x8CE JUMPI PUSH1 0x1 PUSH1 0x1 PUSH1 0xA0 SHL SUB DUP2 AND PUSH0 SWAP1 DUP2 MSTORE PUSH1 0xE PUSH1 0x20 MSTORE PUSH1 0x40 DUP2 KECCAK256 PUSH1 0x6 ADD DUP1 SLOAD DUP6 SWAP3 SWAP1 PUSH2 0x841 SWAP1 DUP5 SWAP1 PUSH2 0x1703 JUMP JUMPDEST SWAP1 SWAP2 SSTORE POP POP PUSH1 0x40 MLOAD PUSH4 0xA9059CBB PUSH1 0xE0 SHL DUP2 MSTORE PUSH1 0x1 PUSH1 0x1 PUSH1 0xA0 SHL SUB DUP3 AND PUSH1 0x4 DUP3 ADD MSTORE PUSH1 0x24 DUP2 ADD DUP5 SWAP1 MSTORE PUSH20 0xFB3C077479113DF18F9F51DC282B09BB0461000 SWAP1 PUSH4 0xA9059CBB SWAP1 PUSH1 0x44 ADD PUSH1 0x20 PUSH1 0x40 MLOAD DUP1 DUP4 SUB DUP2 PUSH0 DUP8 GAS CALL ISZERO DUP1 ISZERO PUSH2 0x8A4 JUMPI RETURNDATASIZE PUSH0 DUP1 RETURNDATACOPY RETURNDATASIZE PUSH0 REVERT JUMPDEST POP POP POP POP PUSH1 0x40 MLOAD RETURNDATASIZE PUSH1 0x1F NOT PUSH1 0x1F DUP3 ADD AND DUP3 ADD DUP1 PUSH1 0x40 MSTORE POP DUP2 ADD SWAP1 PUSH2 0x8C8 SWAP2 SWAP1 PUSH2 0x16AC JUMP JUMPDEST POP PUSH2 0x956 JUMP JUMPDEST PUSH1 0x1 SLOAD PUSH1 0x40 MLOAD PUSH4 0xA9059CBB PUSH1 0xE0 SHL DUP2 MSTORE PUSH1 0x1 PUSH1 0x1 PUSH1 0xA0 SHL SUB SWAP1 SWAP2 AND PUSH1 0x4 DUP3 ADD MSTORE PUSH1 0x24 DUP2 ADD DUP5 SWAP1 MSTORE PUSH20 0xFB3C077479113DF18F9F51DC282B09BB0461000 SWAP1 PUSH4 0xA9059CBB SWAP1 PUSH1 0x44 ADD PUSH1 0x20 PUSH1 0x40 MLOAD DUP1 DUP4 SUB DUP2 PUSH0 DUP8 GAS CALL ISZERO DUP1 ISZERO PUSH2 0x930 JUMPI RETURNDATASIZE PUSH0 DUP1 RETURNDATACOPY RETURNDATASIZE PUSH0 REVERT JUMPDEST POP POP POP POP PUSH1 0x40 MLOAD RETURNDATASIZE PUSH1 0x1F NOT PUSH1 0x1F DUP3 ADD AND DUP3 ADD DUP1 PUSH1 0x40 MSTORE POP DUP2 ADD SWAP1 PUSH2 0x954 SWAP2 SWAP1 PUSH2 0x16AC JUMP JUMPDEST POP JUMPDEST POP PUSH2 0x9FC JUMP JUMPDEST PUSH1 0x1 SLOAD PUSH20 0xFB3C077479113DF18F9F51DC282B09BB0461000 SWAP1 PUSH4 0xA9059CBB SWAP1 PUSH1 0x1 PUSH1 0x1 PUSH1 0xA0 SHL SUB AND PUSH2 0x98E DUP6 DUP8 PUSH2 0x1703 JUMP JUMPDEST PUSH1 0x40 MLOAD PUSH1 0x1 PUSH1 0x1 PUSH1 0xE0 SHL SUB NOT PUSH1 0xE0 DUP6 SWAP1 SHL AND DUP2 MSTORE PUSH1 0x1 PUSH1 0x1 PUSH1 0xA0 SHL SUB SWAP1 SWAP3 AND PUSH1 0x4 DUP4 ADD MSTORE PUSH1 0x24 DUP3 ADD MSTORE PUSH1 0x44 ADD PUSH1 0x20 PUSH1 0x40 MLOAD DUP1 DUP4 SUB DUP2 PUSH0 DUP8 GAS CALL ISZERO DUP1 ISZERO PUSH2 0x9D6 JUMPI RETURNDATASIZE PUSH0 DUP1 RETURNDATACOPY RETURNDATASIZE PUSH0 REVERT JUMPDEST POP POP POP POP PUSH1 0x40 MLOAD RETURNDATASIZE PUSH1 0x1F NOT PUSH1 0x1F DUP3 ADD AND DUP3 ADD DUP1 PUSH1 0x40 MSTORE POP DUP2 ADD SWAP1 PUSH2 0x9FA SWAP2 SWAP1 PUSH2 0x16AC JUMP JUMPDEST POP JUMPDEST PUSH2 0xA1E PUSH1 0x64 PUSH1 0x8 SLOAD DUP9 PUSH2 0xA0F SWAP2 SWAP1 PUSH2 0x16C7 JUMP JUMPDEST PUSH2 0xA19 SWAP2 SWAP1 PUSH2 0x16E4 JUMP JUMPDEST PUSH2 0x12FF JUMP JUMPDEST PUSH1 0x3 SLOAD PUSH1 0x9 SLOAD PUSH20 0xFB3C077479113DF18F9F51DC282B09BB0461000 SWAP2 PUSH4 0xA9059CBB SWAP2 PUSH1 0x1 PUSH1 0x1 PUSH1 0xA0 SHL SUB SWAP1 SWAP2 AND SWAP1 PUSH1 0x64 SWAP1 PUSH2 0xA59 SWAP1 DUP12 PUSH2 0x16C7 JUMP JUMPDEST PUSH2 0xA63 SWAP2 SWAP1 PUSH2 0x16E4 JUMP JUMPDEST PUSH1 0x40 MLOAD PUSH1 0x1 PUSH1 0x1 PUSH1 0xE0 SHL SUB NOT PUSH1 0xE0 DUP6 SWAP1 SHL AND DUP2 MSTORE PUSH1 0x1 PUSH1 0x1 PUSH1 0xA0 SHL SUB SWAP1 SWAP3 AND PUSH1 0x4 DUP4 ADD MSTORE PUSH1 0x24 DUP3 ADD MSTORE PUSH1 0x44 ADD PUSH1 0x20 PUSH1 0x40 MLOAD DUP1 DUP4 SUB DUP2 PUSH0 DUP8 GAS CALL ISZERO DUP1 ISZERO PUSH2 0xAAB JUMPI RETURNDATASIZE PUSH0 DUP1 RETURNDATACOPY RETURNDATASIZE PUSH0 REVERT JUMPDEST POP POP POP POP PUSH1 0x40 MLOAD RETURNDATASIZE PUSH1 0x1F NOT PUSH1 0x1F DUP3 ADD AND DUP3 ADD DUP1 PUSH1 0x40 MSTORE POP DUP2 ADD SWAP1 PUSH2 0xACF SWAP2 SWAP1 PUSH2 0x16AC JUMP JUMPDEST POP PUSH1 0x2 SLOAD PUSH1 0xA SLOAD PUSH20 0xFB3C077479113DF18F9F51DC282B09BB0461000 SWAP2 PUSH4 0xA9059CBB SWAP2 PUSH1 0x1 PUSH1 0x1 PUSH1 0xA0 SHL SUB SWAP1 SWAP2 AND SWAP1 PUSH1 0x64 SWAP1 PUSH2 0xB0B SWAP1 DUP12 PUSH2 0x16C7 JUMP JUMPDEST PUSH2 0xB15 SWAP2 SWAP1 PUSH2 0x16E4 JUMP JUMPDEST PUSH1 0x40 MLOAD PUSH1 0x1 PUSH1 0x1 PUSH1 0xE0 SHL SUB NOT PUSH1 0xE0 DUP6 SWAP1 SHL AND DUP2 MSTORE PUSH1 0x1 PUSH1 0x1 PUSH1 0xA0 SHL SUB SWAP1 SWAP3 AND PUSH1 0x4 DUP4 ADD MSTORE PUSH1 0x24 DUP3 ADD MSTORE PUSH1 0x44 ADD PUSH1 0x20 PUSH1 0x40 MLOAD DUP1 DUP4 SUB DUP2 PUSH0 DUP8 GAS CALL ISZERO DUP1 ISZERO PUSH2 0xB5D JUMPI RETURNDATASIZE PUSH0 DUP1 RETURNDATACOPY RETURNDATASIZE PUSH0 REVERT JUMPDEST POP POP POP POP PUSH1 0x40 MLOAD RETURNDATASIZE PUSH1 0x1F NOT PUSH1 0x1F DUP3 ADD AND DUP3 ADD DUP1 PUSH1 0x40 MSTORE POP DUP2 ADD SWAP1 PUSH2 0xB81 SWAP2 SWAP1 PUSH2 0x16AC JUMP JUMPDEST POP DUP5 PUSH1 0xF SUB PUSH2 0xB9C JUMPI PUSH1 0x1 DUP5 ADD DUP7 SWAP1 SSTORE TIMESTAMP PUSH1 0x2 DUP6 ADD SSTORE PUSH2 0xBAA JUMP JUMPDEST PUSH1 0x3 DUP5 ADD DUP7 SWAP1 SSTORE TIMESTAMP PUSH1 0x4 DUP6 ADD SSTORE JUMPDEST DUP6 PUSH1 0xB PUSH0 DUP3 DUP3 SLOAD PUSH2 0xBBB SWAP2 SWAP1 PUSH2 0x1703 JUMP JUMPDEST SWAP1 SWAP2 SSTORE POP POP POP POP POP POP POP POP POP JUMP JUMPDEST CALLER PUSH0 SWAP1 DUP2 MSTORE PUSH1 0xE PUSH1 0x20 MSTORE PUSH1 0x40 SWAP1 KECCAK256 PUSH1 0x2 DUP2 ADD SLOAD PUSH2 0xBE9 SWAP1 PUSH3 0x13C680 PUSH2 0x1703 JUMP JUMPDEST TIMESTAMP LT ISZERO PUSH2 0xBF4 JUMPI PUSH0 DUP1 REVERT JUMPDEST PUSH0 PUSH2 0xBFE CALLER PUSH2 0x1059 JUMP JUMPDEST SWAP1 POP PUSH0 DUP2 GT PUSH2 0xC43 JUMPI PUSH1 0x40 MLOAD PUSH3 0x461BCD PUSH1 0xE5 SHL DUP2 MSTORE PUSH1 0x20 PUSH1 0x4 DUP3 ADD MSTORE PUSH1 0x11 PUSH1 0x24 DUP3 ADD MSTORE PUSH17 0x139BC81C195B991A5B99C81C995DD85C99 PUSH1 0x7A SHL PUSH1 0x44 DUP3 ADD MSTORE PUSH1 0x64 ADD PUSH2 0x4D8 JUMP JUMPDEST PUSH0 PUSH1 0x1 DUP4 ADD DUP2 SWAP1 SSTORE PUSH1 0x2 DUP4 ADD DUP2 SWAP1 SSTORE PUSH2 0xC5A PUSH2 0xDC8 JUMP JUMPDEST PUSH2 0xC6C DUP4 PUSH8 0xDE0B6B3A7640000 PUSH2 0x16C7 JUMP JUMPDEST PUSH2 0xC76 SWAP2 SWAP1 PUSH2 0x16E4 JUMP JUMPDEST PUSH1 0x3 SLOAD PUSH1 0x40 MLOAD PUSH4 0x23B872DD PUSH1 0xE0 SHL DUP2 MSTORE PUSH1 0x1 PUSH1 0x1 PUSH1 0xA0 SHL SUB SWAP1 SWAP2 AND PUSH1 0x4 DUP3 ADD MSTORE CALLER PUSH1 0x24 DUP3 ADD MSTORE PUSH1 0x44 DUP2 ADD DUP3 SWAP1 MSTORE SWAP1 SWAP2 POP PUSH20 0x372319BBFFDE74707AED44DD432C675A574A0770 SWAP1 PUSH4 0x23B872DD SWAP1 PUSH1 0x64 ADD JUMPDEST PUSH1 0x20 PUSH1 0x40 MLOAD DUP1 DUP4 SUB DUP2 PUSH0 DUP8 GAS CALL ISZERO DUP1 ISZERO PUSH2 0xCE2 JUMPI RETURNDATASIZE PUSH0 DUP1 RETURNDATACOPY RETURNDATASIZE PUSH0 REVERT JUMPDEST POP POP POP POP PUSH1 0x40 MLOAD RETURNDATASIZE PUSH1 0x1F NOT PUSH1 0x1F DUP3 ADD AND DUP3 ADD DUP1 PUSH1 0x40 MSTORE POP DUP2 ADD SWAP1 PUSH2 0xD06 SWAP2 SWAP1 PUSH2 0x16AC JUMP JUMPDEST POP POP POP POP JUMP JUMPDEST PUSH1 0x1 PUSH1 0x1 PUSH1 0xA0 SHL SUB DUP2 AND PUSH0 SWAP1 DUP2 MSTORE PUSH1 0xE PUSH1 0x20 MSTORE PUSH1 0x40 DUP2 KECCAK256 PUSH1 0x3 DUP2 ADD SLOAD DUP3 SUB PUSH2 0xD36 JUMPI POP PUSH0 SWAP3 SWAP2 POP POP JUMP JUMPDEST PUSH0 PUSH1 0x64 DUP3 PUSH1 0x3 ADD SLOAD PUSH1 0x24 PUSH2 0xD4A SWAP2 SWAP1 PUSH2 0x16C7 JUMP JUMPDEST PUSH2 0xD54 SWAP2 SWAP1 PUSH2 0x16E4 JUMP JUMPDEST SWAP1 POP DUP2 PUSH1 0x4 ADD SLOAD PUSH3 0x278D00 PUSH2 0xD69 SWAP2 SWAP1 PUSH2 0x1703 JUMP JUMPDEST TIMESTAMP LT PUSH2 0xD76 JUMPI SWAP4 SWAP3 POP POP POP JUMP JUMPDEST PUSH0 PUSH3 0x15180 PUSH2 0x3E8 DUP5 PUSH1 0x3 ADD SLOAD PUSH1 0xC PUSH2 0xD8F SWAP2 SWAP1 PUSH2 0x16C7 JUMP JUMPDEST PUSH2 0xD99 SWAP2 SWAP1 PUSH2 0x16E4 JUMP JUMPDEST PUSH2 0xDA3 SWAP2 SWAP1 PUSH2 0x16E4 JUMP JUMPDEST SWAP1 POP DUP3 PUSH1 0x4 ADD SLOAD TIMESTAMP PUSH2 0xDB5 SWAP2 SWAP1 PUSH2 0x1716 JUMP JUMPDEST PUSH2 0xDBF SWAP1 DUP3 PUSH2 0x16C7 JUMP JUMPDEST SWAP6 SWAP5 POP POP POP POP POP JUMP JUMPDEST PUSH1 0x40 DUP1 MLOAD PUSH1 0x2 DUP1 DUP3 MSTORE PUSH1 0x60 DUP3 ADD DUP4 MSTORE PUSH0 SWAP3 DUP4 SWAP3 SWAP2 SWAP1 PUSH1 0x20 DUP4 ADD SWAP1 DUP1 CALLDATASIZE DUP4 CALLDATACOPY ADD SWAP1 POP POP SWAP1 POP PUSH20 0x372319BBFFDE74707AED44DD432C675A574A0770 DUP2 PUSH0 DUP2 MLOAD DUP2 LT PUSH2 0xE13 JUMPI PUSH2 0xE13 PUSH2 0x173D JUMP JUMPDEST PUSH1 0x20 MUL PUSH1 0x20 ADD ADD SWAP1 PUSH1 0x1 PUSH1 0x1 PUSH1 0xA0 SHL SUB AND SWAP1 DUP2 PUSH1 0x1 PUSH1 0x1 PUSH1 0xA0 SHL SUB AND DUP2 MSTORE POP POP PUSH20 0xFB3C077479113DF18F9F51DC282B09BB0461000 DUP2 PUSH1 0x1 DUP2 MLOAD DUP2 LT PUSH2 0xE5B JUMPI PUSH2 0xE5B PUSH2 0x173D JUMP JUMPDEST PUSH1 0x1 PUSH1 0x1 PUSH1 0xA0 SHL SUB SWAP1 SWAP3 AND PUSH1 0x20 SWAP3 DUP4 MUL SWAP2 SWAP1 SWAP2 ADD SWAP1 SWAP2 ADD MSTORE PUSH1 0x40 MLOAD PUSH4 0xD06CA61F PUSH1 0xE0 SHL DUP2 MSTORE PUSH0 SWAP1 PUSH20 0x9AC64CC6E4415144C455BD8E4837FEA55603E5C3 SWAP1 PUSH4 0xD06CA61F SWAP1 PUSH2 0xEB6 SWAP1 PUSH8 0xDE0B6B3A7640000 SWAP1 DUP7 SWAP1 PUSH1 0x4 ADD PUSH2 0x1794 JUMP JUMPDEST PUSH0 PUSH1 0x40 MLOAD DUP1 DUP4 SUB DUP2 DUP7 GAS STATICCALL ISZERO DUP1 ISZERO PUSH2 0xED0 JUMPI RETURNDATASIZE PUSH0 DUP1 RETURNDATACOPY RETURNDATASIZE PUSH0 REVERT JUMPDEST POP POP POP POP PUSH1 0x40 MLOAD RETURNDATASIZE PUSH0 DUP3 RETURNDATACOPY PUSH1 0x1F RETURNDATASIZE SWAP1 DUP2 ADD PUSH1 0x1F NOT AND DUP3 ADD PUSH1 0x40 MSTORE PUSH2 0xEF7 SWAP2 SWAP1 DUP2 ADD SWAP1 PUSH2 0x17B4 JUMP JUMPDEST SWAP1 POP DUP1 PUSH1 0x1 DUP2 MLOAD DUP2 LT PUSH2 0xF0C JUMPI PUSH2 0xF0C PUSH2 0x173D JUMP JUMPDEST PUSH1 0x20 MUL PUSH1 0x20 ADD ADD MLOAD SWAP3 POP POP POP SWAP1 JUMP JUMPDEST CALLER PUSH0 SWAP1 DUP2 MSTORE PUSH1 0xE PUSH1 0x20 MSTORE PUSH1 0x40 SWAP1 KECCAK256 PUSH1 0x4 DUP2 ADD SLOAD PUSH2 0xF3B SWAP1 PUSH3 0x278D00 PUSH2 0x1703 JUMP JUMPDEST TIMESTAMP LT ISZERO PUSH2 0xF46 JUMPI PUSH0 DUP1 REVERT JUMPDEST PUSH0 PUSH2 0xF50 CALLER PUSH2 0xD0C JUMP JUMPDEST SWAP1 POP PUSH0 DUP2 GT PUSH2 0xF95 JUMPI PUSH1 0x40 MLOAD PUSH3 0x461BCD PUSH1 0xE5 SHL DUP2 MSTORE PUSH1 0x20 PUSH1 0x4 DUP3 ADD MSTORE PUSH1 0x11 PUSH1 0x24 DUP3 ADD MSTORE PUSH17 0x139BC81C195B991A5B99C81C995DD85C99 PUSH1 0x7A SHL PUSH1 0x44 DUP3 ADD MSTORE PUSH1 0x64 ADD PUSH2 0x4D8 JUMP JUMPDEST PUSH0 PUSH1 0x3 DUP4 ADD DUP2 SWAP1 SSTORE PUSH1 0x4 DUP4 ADD DUP2 SWAP1 SSTORE PUSH2 0xC5A PUSH2 0xDC8 JUMP JUMPDEST PUSH0 SLOAD PUSH1 0x1 PUSH1 0x1 PUSH1 0xA0 SHL SUB AND CALLER EQ PUSH2 0xFD5 JUMPI PUSH1 0x40 MLOAD PUSH3 0x461BCD PUSH1 0xE5 SHL DUP2 MSTORE PUSH1 0x4 ADD PUSH2 0x4D8 SWAP1 PUSH2 0x164B JUMP JUMPDEST PUSH1 0xD DUP1 SLOAD PUSH1 0xFF NOT AND SWAP2 ISZERO ISZERO SWAP2 SWAP1 SWAP2 OR SWAP1 SSTORE JUMP JUMPDEST PUSH0 SLOAD PUSH1 0x1 PUSH1 0x1 PUSH1 0xA0 SHL SUB AND CALLER EQ PUSH2 0x1011 JUMPI PUSH1 0x40 MLOAD PUSH3 0x461BCD PUSH1 0xE5 SHL DUP2 MSTORE PUSH1 0x4 ADD PUSH2 0x4D8 SWAP1 PUSH2 0x164B JUMP JUMPDEST PUSH0 DUP1 SLOAD PUSH1 0x40 MLOAD PUSH1 0x1 PUSH1 0x1 PUSH1 0xA0 SHL SUB SWAP1 SWAP2 AND SWAP1 PUSH32 0x8BE0079C531659141344CD1FD0A4F28419497F9722A3DAAFE3B4186F6B6457E0 SWAP1 DUP4 SWAP1 LOG3 PUSH0 DUP1 SLOAD PUSH1 0x1 PUSH1 0x1 PUSH1 0xA0 SHL SUB NOT AND SWAP1 SSTORE JUMP JUMPDEST PUSH1 0x1 PUSH1 0x1 PUSH1 0xA0 SHL SUB DUP2 AND PUSH0 SWAP1 DUP2 MSTORE PUSH1 0xE PUSH1 0x20 MSTORE PUSH1 0x40 DUP2 KECCAK256 PUSH1 0x1 DUP2 ADD SLOAD DUP3 SUB PUSH2 0x1083 JUMPI POP PUSH0 SWAP3 SWAP2 POP POP JUMP JUMPDEST PUSH0 PUSH1 0x64 DUP3 PUSH1 0x1 ADD SLOAD PUSH1 0xF PUSH2 0x1097 SWAP2 SWAP1 PUSH2 0x16C7 JUMP JUMPDEST PUSH2 0x10A1 SWAP2 SWAP1 PUSH2 0x16E4 JUMP JUMPDEST SWAP1 POP DUP2 PUSH1 0x2 ADD SLOAD PUSH3 0x13C680 PUSH2 0x10B6 SWAP2 SWAP1 PUSH2 0x1703 JUMP JUMPDEST TIMESTAMP LT PUSH2 0x10C3 JUMPI SWAP4 SWAP3 POP POP POP JUMP JUMPDEST PUSH0 PUSH3 0x15180 PUSH1 0x64 DUP5 PUSH1 0x1 ADD SLOAD PUSH2 0x10D9 SWAP2 SWAP1 PUSH2 0x16E4 JUMP JUMPDEST PUSH2 0x10E3 SWAP2 SWAP1 PUSH2 0x16E4 JUMP JUMPDEST SWAP1 POP DUP3 PUSH1 0x2 ADD SLOAD TIMESTAMP PUSH2 0xDB5 SWAP2 SWAP1 PUSH2 0x1716 JUMP JUMPDEST PUSH0 SLOAD PUSH1 0x1 PUSH1 0x1 PUSH1 0xA0 SHL SUB AND CALLER EQ PUSH2 0x111E JUMPI PUSH1 0x40 MLOAD PUSH3 0x461BCD PUSH1 0xE5 SHL DUP2 MSTORE PUSH1 0x4 ADD PUSH2 0x4D8 SWAP1 PUSH2 0x164B JUMP JUMPDEST PUSH1 0x2 DUP1 SLOAD PUSH1 0x1 PUSH1 0x1 PUSH1 0xA0 SHL SUB SWAP4 DUP5 AND PUSH1 0x1 PUSH1 0x1 PUSH1 0xA0 SHL SUB NOT SWAP2 DUP3 AND OR SWAP1 SWAP2 SSTORE PUSH1 0x3 DUP1 SLOAD SWAP3 SWAP1 SWAP4 AND SWAP2 AND OR SWAP1 SSTORE JUMP JUMPDEST PUSH0 SLOAD PUSH1 0x1 PUSH1 0x1 PUSH1 0xA0 SHL SUB AND CALLER EQ PUSH2 0x1175 JUMPI PUSH1 0x40 MLOAD PUSH3 0x461BCD PUSH1 0xE5 SHL DUP2 MSTORE PUSH1 0x4 ADD PUSH2 0x4D8 SWAP1 PUSH2 0x164B JUMP JUMPDEST PUSH1 0x40 MLOAD PUSH4 0xA9059CBB PUSH1 0xE0 SHL DUP2 MSTORE PUSH1 0x1 PUSH1 0x1 PUSH1 0xA0 SHL SUB DUP4 DUP2 AND PUSH1 0x4 DUP4 ADD MSTORE PUSH1 0x24 DUP3 ADD DUP4 SWAP1 MSTORE DUP5 AND SWAP1 PUSH4 0xA9059CBB SWAP1 PUSH1 0x44 ADD PUSH2 0xCC6 JUMP JUMPDEST PUSH0 SLOAD PUSH1 0x1 PUSH1 0x1 PUSH1 0xA0 SHL SUB AND CALLER EQ PUSH2 0x11D3 JUMPI PUSH1 0x40 MLOAD PUSH3 0x461BCD PUSH1 0xE5 SHL DUP2 MSTORE PUSH1 0x4 ADD PUSH2 0x4D8 SWAP1 PUSH2 0x164B JUMP JUMPDEST PUSH1 0x6 SWAP5 SWAP1 SWAP5 SSTORE PUSH1 0x7 SWAP3 SWAP1 SWAP3 SSTORE PUSH1 0x8 SSTORE PUSH1 0x9 SSTORE PUSH1 0xA SSTORE JUMP JUMPDEST PUSH0 SLOAD PUSH1 0x1 PUSH1 0x1 PUSH1 0xA0 SHL SUB AND CALLER EQ PUSH2 0x1213 JUMPI PUSH1 0x40 MLOAD PUSH3 0x461BCD PUSH1 0xE5 SHL DUP2 MSTORE PUSH1 0x4 ADD PUSH2 0x4D8 SWAP1 PUSH2 0x164B JUMP JUMPDEST PUSH1 0xC SSTORE JUMP JUMPDEST PUSH0 SLOAD PUSH1 0x1 PUSH1 0x1 PUSH1 0xA0 SHL SUB AND CALLER EQ PUSH2 0x1241 JUMPI PUSH1 0x40 MLOAD PUSH3 0x461BCD PUSH1 0xE5 SHL DUP2 MSTORE PUSH1 0x4 ADD PUSH2 0x4D8 SWAP1 PUSH2 0x164B JUMP JUMPDEST PUSH1 0x1 PUSH1 0x1 PUSH1 0xA0 SHL SUB DUP2 AND PUSH2 0x12A6 JUMPI PUSH1 0x40 MLOAD PUSH3 0x461BCD PUSH1 0xE5 SHL DUP2 MSTORE PUSH1 0x20 PUSH1 0x4 DUP3 ADD MSTORE PUSH1 0x26 PUSH1 0x24 DUP3 ADD MSTORE PUSH32 0x4F776E61626C653A206E6577206F776E657220697320746865207A65726F2061 PUSH1 0x44 DUP3 ADD MSTORE PUSH6 0x646472657373 PUSH1 0xD0 SHL PUSH1 0x64 DUP3 ADD MSTORE PUSH1 0x84 ADD PUSH2 0x4D8 JUMP JUMPDEST PUSH0 DUP1 SLOAD PUSH1 0x40 MLOAD PUSH1 0x1 PUSH1 0x1 PUSH1 0xA0 SHL SUB DUP1 DUP6 AND SWAP4 SWAP3 AND SWAP2 PUSH32 0x8BE0079C531659141344CD1FD0A4F28419497F9722A3DAAFE3B4186F6B6457E0 SWAP2 LOG3 PUSH0 DUP1 SLOAD PUSH1 0x1 PUSH1 0x1 PUSH1 0xA0 SHL SUB NOT AND PUSH1 0x1 PUSH1 0x1 PUSH1 0xA0 SHL SUB SWAP3 SWAP1 SWAP3 AND SWAP2 SWAP1 SWAP2 OR SWAP1 SSTORE JUMP JUMPDEST PUSH1 0x40 DUP1 MLOAD PUSH1 0x2 DUP1 DUP3 MSTORE PUSH1 0x60 DUP3 ADD DUP4 MSTORE PUSH0 SWAP3 PUSH1 0x20 DUP4 ADD SWAP1 DUP1 CALLDATASIZE DUP4 CALLDATACOPY ADD SWAP1 POP POP SWAP1 POP PUSH20 0xFB3C077479113DF18F9F51DC282B09BB0461000 DUP2 PUSH0 DUP2 MLOAD DUP2 LT PUSH2 0x1346 JUMPI PUSH2 0x1346 PUSH2 0x173D JUMP JUMPDEST PUSH1 0x20 MUL PUSH1 0x20 ADD ADD SWAP1 PUSH1 0x1 PUSH1 0x1 PUSH1 0xA0 SHL SUB AND SWAP1 DUP2 PUSH1 0x1 PUSH1 0x1 PUSH1 0xA0 SHL SUB AND DUP2 MSTORE POP POP PUSH20 0x372319BBFFDE74707AED44DD432C675A574A0770 DUP2 PUSH1 0x1 DUP2 MLOAD DUP2 LT PUSH2 0x138E JUMPI PUSH2 0x138E PUSH2 0x173D JUMP JUMPDEST PUSH1 0x1 PUSH1 0x1 PUSH1 0xA0 SHL SUB SWAP1 SWAP3 AND PUSH1 0x20 SWAP3 DUP4 MUL SWAP2 SWAP1 SWAP2 ADD SWAP1 SWAP2 ADD MSTORE PUSH1 0x40 MLOAD PUSH4 0xD06CA61F PUSH1 0xE0 SHL DUP2 MSTORE PUSH0 SWAP1 PUSH20 0x9AC64CC6E4415144C455BD8E4837FEA55603E5C3 SWAP1 PUSH4 0xD06CA61F SWAP1 PUSH2 0x13E1 SWAP1 DUP7 SWAP1 DUP7 SWAP1 PUSH1 0x4 ADD PUSH2 0x1794 JUMP JUMPDEST PUSH0 PUSH1 0x40 MLOAD DUP1 DUP4 SUB DUP2 DUP7 GAS STATICCALL ISZERO DUP1 ISZERO PUSH2 0x13FB JUMPI RETURNDATASIZE PUSH0 DUP1 RETURNDATACOPY RETURNDATASIZE PUSH0 REVERT JUMPDEST POP POP POP POP PUSH1 0x40 MLOAD RETURNDATASIZE PUSH0 DUP3 RETURNDATACOPY PUSH1 0x1F RETURNDATASIZE SWAP1 DUP2 ADD PUSH1 0x1F NOT AND DUP3 ADD PUSH1 0x40 MSTORE PUSH2 0x1422 SWAP2 SWAP1 DUP2 ADD SWAP1 PUSH2 0x17B4 JUMP JUMPDEST SWAP1 POP PUSH20 0x9AC64CC6E4415144C455BD8E4837FEA55603E5C3 PUSH1 0x1 PUSH1 0x1 PUSH1 0xA0 SHL SUB AND PUSH4 0x5C11D795 DUP5 PUSH1 0x64 PUSH1 0xC SLOAD PUSH1 0x64 PUSH2 0x1459 SWAP2 SWAP1 PUSH2 0x1716 JUMP JUMPDEST DUP6 PUSH1 0x1 DUP2 MLOAD DUP2 LT PUSH2 0x146C JUMPI PUSH2 0x146C PUSH2 0x173D JUMP JUMPDEST PUSH1 0x20 MUL PUSH1 0x20 ADD ADD MLOAD PUSH2 0x147E SWAP2 SWAP1 PUSH2 0x16C7 JUMP JUMPDEST PUSH2 0x1488 SWAP2 SWAP1 PUSH2 0x16E4 JUMP JUMPDEST DUP6 PUSH0 TIMESTAMP PUSH1 0x40 MLOAD DUP7 PUSH4 0xFFFFFFFF AND PUSH1 0xE0 SHL DUP2 MSTORE PUSH1 0x4 ADD PUSH2 0x14AB SWAP6 SWAP5 SWAP4 SWAP3 SWAP2 SWAP1 PUSH2 0x186D JUMP JUMPDEST PUSH0 PUSH1 0x40 MLOAD DUP1 DUP4 SUB DUP2 PUSH0 DUP8 DUP1 EXTCODESIZE ISZERO DUP1 ISZERO PUSH2 0x14C2 JUMPI PUSH0 DUP1 REVERT JUMPDEST POP GAS CALL ISZERO DUP1 ISZERO PUSH2 0x14D4 JUMPI RETURNDATASIZE PUSH0 DUP1 RETURNDATACOPY RETURNDATASIZE PUSH0 REVERT JUMPDEST POP POP POP POP POP POP POP JUMP JUMPDEST DUP1 CALLDATALOAD PUSH1 0x1 PUSH1 0x1 PUSH1 0xA0 SHL SUB DUP2 AND DUP2 EQ PUSH2 0x14F3 JUMPI PUSH0 DUP1 REVERT JUMPDEST SWAP2 SWAP1 POP JUMP JUMPDEST PUSH0 PUSH1 0x20 DUP3 DUP5 SUB SLT ISZERO PUSH2 0x1508 JUMPI PUSH0 DUP1 REVERT JUMPDEST PUSH2 0x1511 DUP3 PUSH2 0x14DD JUMP JUMPDEST SWAP4 SWAP3 POP POP POP JUMP JUMPDEST PUSH0 DUP1 PUSH1 0x40 DUP4 DUP6 SUB SLT ISZERO PUSH2 0x1529 JUMPI PUSH0 DUP1 REVERT JUMPDEST POP POP DUP1 CALLDATALOAD SWAP3 PUSH1 0x20 SWAP1 SWAP2 ADD CALLDATALOAD SWAP2 POP JUMP JUMPDEST PUSH0 DUP1 PUSH0 PUSH1 0x60 DUP5 DUP7 SUB SLT ISZERO PUSH2 0x154A JUMPI PUSH0 DUP1 REVERT JUMPDEST PUSH2 0x1553 DUP5 PUSH2 0x14DD JUMP JUMPDEST SWAP6 PUSH1 0x20 DUP6 ADD CALLDATALOAD SWAP6 POP PUSH1 0x40 SWAP1 SWAP5 ADD CALLDATALOAD SWAP4 SWAP3 POP POP POP JUMP JUMPDEST DUP1 ISZERO ISZERO DUP2 EQ PUSH2 0x1575 JUMPI PUSH0 DUP1 REVERT JUMPDEST POP JUMP JUMPDEST PUSH0 PUSH1 0x20 DUP3 DUP5 SUB SLT ISZERO PUSH2 0x1588 JUMPI PUSH0 DUP1 REVERT JUMPDEST DUP2 CALLDATALOAD PUSH2 0x1511 DUP2 PUSH2 0x1568 JUMP JUMPDEST PUSH0 DUP1 PUSH1 0x40 DUP4 DUP6 SUB SLT ISZERO PUSH2 0x15A4 JUMPI PUSH0 DUP1 REVERT JUMPDEST PUSH2 0x15AD DUP4 PUSH2 0x14DD JUMP JUMPDEST SWAP2 POP PUSH2 0x15BB PUSH1 0x20 DUP5 ADD PUSH2 0x14DD JUMP JUMPDEST SWAP1 POP SWAP3 POP SWAP3 SWAP1 POP JUMP JUMPDEST PUSH0 DUP1 PUSH0 PUSH1 0x60 DUP5 DUP7 SUB SLT ISZERO PUSH2 0x15D6 JUMPI PUSH0 DUP1 REVERT JUMPDEST PUSH2 0x15DF DUP5 PUSH2 0x14DD JUMP JUMPDEST SWAP3 POP PUSH2 0x15ED PUSH1 0x20 DUP6 ADD PUSH2 0x14DD JUMP JUMPDEST SWAP2 POP PUSH1 0x40 DUP5 ADD CALLDATALOAD SWAP1 POP SWAP3 POP SWAP3 POP SWAP3 JUMP JUMPDEST PUSH0 DUP1 PUSH0 DUP1 PUSH0 PUSH1 0xA0 DUP7 DUP9 SUB SLT ISZERO PUSH2 0x1611 JUMPI PUSH0 DUP1 REVERT JUMPDEST POP POP DUP4 CALLDATALOAD SWAP6 PUSH1 0x20 DUP6 ADD CALLDATALOAD SWAP6 POP PUSH1 0x40 DUP6 ADD CALLDATALOAD SWAP5 PUSH1 0x60 DUP2 ADD CALLDATALOAD SWAP5 POP PUSH1 0x80 ADD CALLDATALOAD SWAP3 POP SWAP1 POP JUMP JUMPDEST PUSH0 PUSH1 0x20 DUP3 DUP5 SUB SLT ISZERO PUSH2 0x1644 JUMPI PUSH0 DUP1 REVERT JUMPDEST POP CALLDATALOAD SWAP2 SWAP1 POP JUMP JUMPDEST PUSH1 0x20 DUP1 DUP3 MSTORE DUP2 DUP2 ADD MSTORE PUSH32 0x4F776E61626C653A2063616C6C6572206973206E6F7420746865206F776E6572 PUSH1 0x40 DUP3 ADD MSTORE PUSH1 0x60 ADD SWAP1 JUMP JUMPDEST PUSH4 0x4E487B71 PUSH1 0xE0 SHL PUSH0 MSTORE PUSH1 0x11 PUSH1 0x4 MSTORE PUSH1 0x24 PUSH0 REVERT JUMPDEST PUSH0 PUSH1 0x1 DUP3 ADD PUSH2 0x16A5 JUMPI PUSH2 0x16A5 PUSH2 0x1680 JUMP JUMPDEST POP PUSH1 0x1 ADD SWAP1 JUMP JUMPDEST PUSH0 PUSH1 0x20 DUP3 DUP5 SUB SLT ISZERO PUSH2 0x16BC JUMPI PUSH0 DUP1 REVERT JUMPDEST DUP2 MLOAD PUSH2 0x1511 DUP2 PUSH2 0x1568 JUMP JUMPDEST DUP1 DUP3 MUL DUP2 ISZERO DUP3 DUP3 DIV DUP5 EQ OR PUSH2 0x16DE JUMPI PUSH2 0x16DE PUSH2 0x1680 JUMP JUMPDEST SWAP3 SWAP2 POP POP JUMP JUMPDEST PUSH0 DUP3 PUSH2 0x16FE JUMPI PUSH4 0x4E487B71 PUSH1 0xE0 SHL PUSH0 MSTORE PUSH1 0x12 PUSH1 0x4 MSTORE PUSH1 0x24 PUSH0 REVERT JUMPDEST POP DIV SWAP1 JUMP JUMPDEST DUP1 DUP3 ADD DUP1 DUP3 GT ISZERO PUSH2 0x16DE JUMPI PUSH2 0x16DE PUSH2 0x1680 JUMP JUMPDEST DUP2 DUP2 SUB DUP2 DUP2 GT ISZERO PUSH2 0x16DE JUMPI PUSH2 0x16DE PUSH2 0x1680 JUMP JUMPDEST PUSH4 0x4E487B71 PUSH1 0xE0 SHL PUSH0 MSTORE PUSH1 0x41 PUSH1 0x4 MSTORE PUSH1 0x24 PUSH0 REVERT JUMPDEST PUSH4 0x4E487B71 PUSH1 0xE0 SHL PUSH0 MSTORE PUSH1 0x32 PUSH1 0x4 MSTORE PUSH1 0x24 PUSH0 REVERT JUMPDEST PUSH0 DUP2 MLOAD DUP1 DUP5 MSTORE PUSH1 0x20 DUP1 DUP6 ADD SWAP5 POP PUSH1 0x20 DUP5 ADD PUSH0 JUMPDEST DUP4 DUP2 LT ISZERO PUSH2 0x1789 JUMPI DUP2 MLOAD PUSH1 0x1 PUSH1 0x1 PUSH1 0xA0 SHL SUB AND DUP8 MSTORE SWAP6 DUP3 ADD SWAP6 SWAP1 DUP3 ADD SWAP1 PUSH1 0x1 ADD PUSH2 0x1764 JUMP JUMPDEST POP SWAP5 SWAP6 SWAP5 POP POP POP POP POP JUMP JUMPDEST DUP3 DUP2 MSTORE PUSH1 0x40 PUSH1 0x20 DUP3 ADD MSTORE PUSH0 PUSH2 0x17AC PUSH1 0x40 DUP4 ADD DUP5 PUSH2 0x1751 JUMP JUMPDEST SWAP5 SWAP4 POP POP POP POP JUMP JUMPDEST PUSH0 PUSH1 0x20 DUP1 DUP4 DUP6 SUB SLT ISZERO PUSH2 0x17C5 JUMPI PUSH0 DUP1 REVERT JUMPDEST DUP3 MLOAD PUSH8 0xFFFFFFFFFFFFFFFF DUP1 DUP3 GT ISZERO PUSH2 0x17DC JUMPI PUSH0 DUP1 REVERT JUMPDEST DUP2 DUP6 ADD SWAP2 POP DUP6 PUSH1 0x1F DUP4 ADD SLT PUSH2 0x17EF JUMPI PUSH0 DUP1 REVERT JUMPDEST DUP2 MLOAD DUP2 DUP2 GT ISZERO PUSH2 0x1801 JUMPI PUSH2 0x1801 PUSH2 0x1729 JUMP JUMPDEST DUP1 PUSH1 0x5 SHL PUSH1 0x40 MLOAD PUSH1 0x1F NOT PUSH1 0x3F DUP4 ADD AND DUP2 ADD DUP2 DUP2 LT DUP6 DUP3 GT OR ISZERO PUSH2 0x1826 JUMPI PUSH2 0x1826 PUSH2 0x1729 JUMP JUMPDEST PUSH1 0x40 MSTORE SWAP2 DUP3 MSTORE DUP5 DUP3 ADD SWAP3 POP DUP4 DUP2 ADD DUP6 ADD SWAP2 DUP9 DUP4 GT ISZERO PUSH2 0x1843 JUMPI PUSH0 DUP1 REVERT JUMPDEST SWAP4 DUP6 ADD SWAP4 JUMPDEST DUP3 DUP6 LT ISZERO PUSH2 0x1861 JUMPI DUP5 MLOAD DUP5 MSTORE SWAP4 DUP6 ADD SWAP4 SWAP3 DUP6 ADD SWAP3 PUSH2 0x1848 JUMP JUMPDEST SWAP9 SWAP8 POP POP POP POP POP POP POP POP JUMP JUMPDEST DUP6 DUP2 MSTORE DUP5 PUSH1 0x20 DUP3 ADD MSTORE PUSH1 0xA0 PUSH1 0x40 DUP3 ADD MSTORE PUSH0 PUSH2 0x188B PUSH1 0xA0 DUP4 ADD DUP7 PUSH2 0x1751 JUMP JUMPDEST PUSH1 0x1 PUSH1 0x1 PUSH1 0xA0 SHL SUB SWAP5 SWAP1 SWAP5 AND PUSH1 0x60 DUP4 ADD MSTORE POP PUSH1 0x80 ADD MSTORE SWAP4 SWAP3 POP POP POP JUMP INVALID LOG2 PUSH5 0x6970667358 0x22 SLT KECCAK256 0xE3 0x2D 0xB9 CALLVALUE DUP11 0xCE LOG1 0xC4 NUMBER 0xE5 0xAA 0xE8 0xFB BALANCE 0xE7 PUSH26 0xAC6A7E3BAE4C73EFE8B5F363A14A03F364736F6C634300081800 CALLER "
		},
		"gasEstimates": {
			"creation": {
				"codeDepositCost": "1273200",
				"executionCost": "infinite",
				"totalCost": "infinite"
			},
			"external": {
				"ROUTER()": "327",
				"USDT()": "304",
				"ZY()": "304",
				"claim15()": "infinite",
				"claim30()": "infinite",
				"firstAddr()": "2447",
				"marketingAddr()": "2426",
				"maxAmount()": "2339",
				"minAmount()": "2383",
				"owner()": "2441",
				"pendingReward15(address)": "infinite",
				"pendingReward30(address)": "infinite",
				"ratio1()": "2339",
				"ratio2()": "2406",
				"ratio3()": "2338",
				"ratio4()": "2405",
				"ratio5()": "2384",
				"renounceOwnership()": "30272",
				"rescueERC20(address,address,uint256)": "infinite",
				"rescueETH(address)": "infinite",
				"setAddrs(address,address)": "infinite",
				"setMinAndMaxAmount(uint256,uint256)": "46665",
				"setRatios(uint256,uint256,uint256,uint256,uint256)": "113035",
				"setSlippage(uint256)": "24549",
				"setStart(bool)": "26727",
				"slippage()": "2362",
				"stake(address,uint256,uint256)": "infinite",
				"start()": "2376",
				"totalStaked()": "2340",
				"transferOwnership(address)": "30505",
				"userInfo(address)": "15406",
				"vault()": "2468",
				"zyPrice()": "infinite"
			},
			"internal": {
				"_buy(uint256)": "infinite"
			}
		},
		"methodIdentifiers": {
			"ROUTER()": "32fe7b26",
			"USDT()": "c54e44eb",
			"ZY()": "6d090bd5",
			"claim15()": "0e8ff105",
			"claim30()": "390d1219",
			"firstAddr()": "c63a695c",
			"marketingAddr()": "3ff42b92",
			"maxAmount()": "5f48f393",
			"minAmount()": "9b2cb5d8",
			"owner()": "8da5cb5b",
			"pendingReward15(address)": "847239a7",
			"pendingReward30(address)": "2523ff0c",
			"ratio1()": "9665e82a",
			"ratio2()": "4a5064a9",
			"ratio3()": "d3a8eb4b",
			"ratio4()": "b1bb9cd7",
			"ratio5()": "87b14302",
			"renounceOwnership()": "715018a6",
			"rescueERC20(address,address,uint256)": "b2118a8d",
			"rescueETH(address)": "04824e70",
			"setAddrs(address,address)": "9718a93b",
			"setMinAndMaxAmount(uint256,uint256)": "058df89f",
			"setRatios(uint256,uint256,uint256,uint256,uint256)": "e078e9f7",
			"setSlippage(uint256)": "f0fa55a9",
			"setStart(bool)": "68e24327",
			"slippage()": "3e032a3b",
			"stake(address,uint256,uint256)": "0c51b88f",
			"start()": "be9a6555",
			"totalStaked()": "817b1cd2",
			"transferOwnership(address)": "f2fde38b",
			"userInfo(address)": "1959a002",
			"vault()": "fbfa77cf",
			"zyPrice()": "30b9ea28"
		}
	},
	"abi": [
		{
			"inputs": [],
			"stateMutability": "nonpayable",
			"type": "constructor"
		},
		{
			"anonymous": false,
			"inputs": [
				{
					"indexed": true,
					"internalType": "address",
					"name": "previousOwner",
					"type": "address"
				},
				{
					"indexed": true,
					"internalType": "address",
					"name": "newOwner",
					"type": "address"
				}
			],
			"name": "OwnershipTransferred",
			"type": "event"
		},
		{
			"inputs": [],
			"name": "ROUTER",
			"outputs": [
				{
					"internalType": "address",
					"name": "",
					"type": "address"
				}
			],
			"stateMutability": "view",
			"type": "function"
		},
		{
			"inputs": [],
			"name": "USDT",
			"outputs": [
				{
					"internalType": "address",
					"name": "",
					"type": "address"
				}
			],
			"stateMutability": "view",
			"type": "function"
		},
		{
			"inputs": [],
			"name": "ZY",
			"outputs": [
				{
					"internalType": "address",
					"name": "",
					"type": "address"
				}
			],
			"stateMutability": "view",
			"type": "function"
		},
		{
			"inputs": [],
			"name": "claim15",
			"outputs": [],
			"stateMutability": "nonpayable",
			"type": "function"
		},
		{
			"inputs": [],
			"name": "claim30",
			"outputs": [],
			"stateMutability": "nonpayable",
			"type": "function"
		},
		{
			"inputs": [],
			"name": "firstAddr",
			"outputs": [
				{
					"internalType": "address",
					"name": "",
					"type": "address"
				}
			],
			"stateMutability": "view",
			"type": "function"
		},
		{
			"inputs": [],
			"name": "marketingAddr",
			"outputs": [
				{
					"internalType": "address",
					"name": "",
					"type": "address"
				}
			],
			"stateMutability": "view",
			"type": "function"
		},
		{
			"inputs": [],
			"name": "maxAmount",
			"outputs": [
				{
					"internalType": "uint256",
					"name": "",
					"type": "uint256"
				}
			],
			"stateMutability": "view",
			"type": "function"
		},
		{
			"inputs": [],
			"name": "minAmount",
			"outputs": [
				{
					"internalType": "uint256",
					"name": "",
					"type": "uint256"
				}
			],
			"stateMutability": "view",
			"type": "function"
		},
		{
			"inputs": [],
			"name": "owner",
			"outputs": [
				{
					"internalType": "address",
					"name": "",
					"type": "address"
				}
			],
			"stateMutability": "view",
			"type": "function"
		},
		{
			"inputs": [
				{
					"internalType": "address",
					"name": "user",
					"type": "address"
				}
			],
			"name": "pendingReward15",
			"outputs": [
				{
					"internalType": "uint256",
					"name": "",
					"type": "uint256"
				}
			],
			"stateMutability": "view",
			"type": "function"
		},
		{
			"inputs": [
				{
					"internalType": "address",
					"name": "user",
					"type": "address"
				}
			],
			"name": "pendingReward30",
			"outputs": [
				{
					"internalType": "uint256",
					"name": "",
					"type": "uint256"
				}
			],
			"stateMutability": "view",
			"type": "function"
		},
		{
			"inputs": [],
			"name": "ratio1",
			"outputs": [
				{
					"internalType": "uint256",
					"name": "",
					"type": "uint256"
				}
			],
			"stateMutability": "view",
			"type": "function"
		},
		{
			"inputs": [],
			"name": "ratio2",
			"outputs": [
				{
					"internalType": "uint256",
					"name": "",
					"type": "uint256"
				}
			],
			"stateMutability": "view",
			"type": "function"
		},
		{
			"inputs": [],
			"name": "ratio3",
			"outputs": [
				{
					"internalType": "uint256",
					"name": "",
					"type": "uint256"
				}
			],
			"stateMutability": "view",
			"type": "function"
		},
		{
			"inputs": [],
			"name": "ratio4",
			"outputs": [
				{
					"internalType": "uint256",
					"name": "",
					"type": "uint256"
				}
			],
			"stateMutability": "view",
			"type": "function"
		},
		{
			"inputs": [],
			"name": "ratio5",
			"outputs": [
				{
					"internalType": "uint256",
					"name": "",
					"type": "uint256"
				}
			],
			"stateMutability": "view",
			"type": "function"
		},
		{
			"inputs": [],
			"name": "renounceOwnership",
			"outputs": [],
			"stateMutability": "nonpayable",
			"type": "function"
		},
		{
			"inputs": [
				{
					"internalType": "address",
					"name": "token",
					"type": "address"
				},
				{
					"internalType": "address",
					"name": "to",
					"type": "address"
				},
				{
					"internalType": "uint256",
					"name": "amount",
					"type": "uint256"
				}
			],
			"name": "rescueERC20",
			"outputs": [],
			"stateMutability": "nonpayable",
			"type": "function"
		},
		{
			"inputs": [
				{
					"internalType": "address",
					"name": "to",
					"type": "address"
				}
			],
			"name": "rescueETH",
			"outputs": [],
			"stateMutability": "nonpayable",
			"type": "function"
		},
		{
			"inputs": [
				{
					"internalType": "address",
					"name": "_marketingAddr",
					"type": "address"
				},
				{
					"internalType": "address",
					"name": "_vault",
					"type": "address"
				}
			],
			"name": "setAddrs",
			"outputs": [],
			"stateMutability": "nonpayable",
			"type": "function"
		},
		{
			"inputs": [
				{
					"internalType": "uint256",
					"name": "_minAmount",
					"type": "uint256"
				},
				{
					"internalType": "uint256",
					"name": "_maxAmount",
					"type": "uint256"
				}
			],
			"name": "setMinAndMaxAmount",
			"outputs": [],
			"stateMutability": "nonpayable",
			"type": "function"
		},
		{
			"inputs": [
				{
					"internalType": "uint256",
					"name": "_ratio1",
					"type": "uint256"
				},
				{
					"internalType": "uint256",
					"name": "_ratio2",
					"type": "uint256"
				},
				{
					"internalType": "uint256",
					"name": "_ratio3",
					"type": "uint256"
				},
				{
					"internalType": "uint256",
					"name": "_ratio4",
					"type": "uint256"
				},
				{
					"internalType": "uint256",
					"name": "_ratio5",
					"type": "uint256"
				}
			],
			"name": "setRatios",
			"outputs": [],
			"stateMutability": "nonpayable",
			"type": "function"
		},
		{
			"inputs": [
				{
					"internalType": "uint256",
					"name": "_slippage",
					"type": "uint256"
				}
			],
			"name": "setSlippage",
			"outputs": [],
			"stateMutability": "nonpayable",
			"type": "function"
		},
		{
			"inputs": [
				{
					"internalType": "bool",
					"name": "_start",
					"type": "bool"
				}
			],
			"name": "setStart",
			"outputs": [],
			"stateMutability": "nonpayable",
			"type": "function"
		},
		{
			"inputs": [],
			"name": "slippage",
			"outputs": [
				{
					"internalType": "uint256",
					"name": "",
					"type": "uint256"
				}
			],
			"stateMutability": "view",
			"type": "function"
		},
		{
			"inputs": [
				{
					"internalType": "address",
					"name": "inviter",
					"type": "address"
				},
				{
					"internalType": "uint256",
					"name": "usdtAmount",
					"type": "uint256"
				},
				{
					"internalType": "uint256",
					"name": "lockDays",
					"type": "uint256"
				}
			],
			"name": "stake",
			"outputs": [],
			"stateMutability": "nonpayable",
			"type": "function"
		},
		{
			"inputs": [],
			"name": "start",
			"outputs": [
				{
					"internalType": "bool",
					"name": "",
					"type": "bool"
				}
			],
			"stateMutability": "view",
			"type": "function"
		},
		{
			"inputs": [],
			"name": "totalStaked",
			"outputs": [
				{
					"internalType": "uint256",
					"name": "",
					"type": "uint256"
				}
			],
			"stateMutability": "view",
			"type": "function"
		},
		{
			"inputs": [
				{
					"internalType": "address",
					"name": "newOwner",
					"type": "address"
				}
			],
			"name": "transferOwnership",
			"outputs": [],
			"stateMutability": "nonpayable",
			"type": "function"
		},
		{
			"inputs": [
				{
					"internalType": "address",
					"name": "",
					"type": "address"
				}
			],
			"name": "userInfo",
			"outputs": [
				{
					"internalType": "address",
					"name": "inviter",
					"type": "address"
				},
				{
					"internalType": "uint256",
					"name": "balance15",
					"type": "uint256"
				},
				{
					"internalType": "uint256",
					"name": "startTime15",
					"type": "uint256"
				},
				{
					"internalType": "uint256",
					"name": "balance30",
					"type": "uint256"
				},
				{
					"internalType": "uint256",
					"name": "startTime30",
					"type": "uint256"
				},
				{
					"internalType": "uint256",
					"name": "sons",
					"type": "uint256"
				},
				{
					"internalType": "uint256",
					"name": "rewards",
					"type": "uint256"
				}
			],
			"stateMutability": "view",
			"type": "function"
		},
		{
			"inputs": [],
			"name": "vault",
			"outputs": [
				{
					"internalType": "address",
					"name": "",
					"type": "address"
				}
			],
			"stateMutability": "view",
			"type": "function"
		},
		{
			"inputs": [],
			"name": "zyPrice",
			"outputs": [
				{
					"internalType": "uint256",
					"name": "",
					"type": "uint256"
				}
			],
			"stateMutability": "view",
			"type": "function"
		}
	]
}