{
	"data": {
		"bytecode": {
			"linkReferences": {},
			"object": "608060405260018054739ee20a74588a1d89e028a2be4ccf842ac93521116001600160a01b031991821681178355600280548316821790556003805490921617815568056bc75e2d63100000600455686c6b935b8bbd4000006005556007600681905555601e6008556032600955600a808055600c55600d805460ff1916909117905569065a4da25d3016c00000600e5534801561009b575f80fd5b505f80546001600160a01b031916339081178255604051909182917f8be0079c531659141344cd1fd0a4f28419497f9722a3daafe3b4186f6b6457e0908290a35060405163095ea7b360e01b8152739ac64cc6e4415144c455bd8e4837fea55603e5c360048201525f196024820152730fb3c077479113df18f9f51dc282b09bb04610009063095ea7b3906044016020604051808303815f875af1158015610145573d5f803e3d5ffd5b505050506040513d601f19601f82011682018060405250810190610169919061016f565b50610195565b5f6020828403121561017f575f80fd5b8151801515811461018e575f80fd5b9392505050565b6119fd806101a25f395ff3fe608060405234801561000f575f80fd5b506004361061021e575f3560e01c80637e6357701161012a578063b2118a8d116100b4578063d3a8eb4b11610079578063d3a8eb4b146104c9578063e078e9f7146104d2578063f0fa55a9146104e5578063f2fde38b146104f8578063fbfa77cf1461050b575f80fd5b8063b2118a8d14610462578063be9a655514610475578063c303935114610492578063c54e44eb1461049b578063c63a695c146104b6575f80fd5b80638da5cb5b116100fa5780638da5cb5b146104245780639665e82a146104345780639718a93b1461043d5780639b2cb5d814610450578063b1bb9cd714610459575f80fd5b80637e635770146103f7578063817b1cd2146103ff578063847239a71461040857806387b143021461041b575f80fd5b806332fe7b26116101ab5780634a5064a91161017b5780634a5064a9146103af5780635f48f393146103b857806368e24327146103c15780636d090bd5146103d4578063715018a6146103ef575f80fd5b806332fe7b2614610358578063390d12191461038b5780633e032a3b146103935780633ff42b921461039c575f80fd5b806312e0b6de116101f157806312e0b6de14610265578063166df0d1146102785780631959a002146102aa5780632523ff0c1461033d57806330b9ea2814610350575f80fd5b806304824e7014610222578063058df89f146102375780630c51b88f1461024a5780630e8ff1051461025d575b5f80fd5b610235610230366004611617565b61051e565b005b610235610245366004611637565b610586565b610235610258366004611657565b6105ba565b610235610c97565b610235610273366004611687565b610dda565b610297610286366004611687565b600f6020525f908152604090205481565b6040519081526020015b60405180910390f35b6102fe6102b8366004611617565b60106020525f908152604090208054600182015460028301546003840154600485015460058601546006909601546001600160a01b039095169593949293919290919087565b604080516001600160a01b0390981688526020880196909652948601939093526060850191909152608084015260a083015260c082015260e0016102a1565b61029761034b366004611617565b610e08565b610297610ec4565b610373739ac64cc6e4415144c455bd8e4837fea55603e5c381565b6040516001600160a01b0390911681526020016102a1565b610235611017565b610297600c5481565b600254610373906001600160a01b031681565b61029760075481565b61029760055481565b6102356103cf3660046116ae565b6110a8565b61037373372319bbffde74707aed44dd432c675a574a077081565b6102356110e4565b610297611155565b610297600b5481565b610297610416366004611617565b611178565b610297600a5481565b5f546001600160a01b0316610373565b61029760065481565b61023561044b3660046116c9565b611214565b61029760045481565b61029760095481565b6102356104703660046116fa565b61126b565b600d546104829060ff1681565b60405190151581526020016102a1565b610297600e5481565b610373730fb3c077479113df18f9f51dc282b09bb046100081565b600154610373906001600160a01b031681565b61029760085481565b6102356104e0366004611733565b6112c9565b6102356104f3366004611687565b611309565b610235610506366004611617565b611337565b600354610373906001600160a01b031681565b5f546001600160a01b031633146105505760405162461bcd60e51b81526004016105479061176a565b60405180910390fd5b6040516001600160a01b038216904780156108fc02915f818181858888f19350505050158015610582573d5f803e3d5ffd5b5050565b5f546001600160a01b031633146105af5760405162461bcd60e51b81526004016105479061176a565b600491909155600555565b600d5460ff166105c8575f80fd5b336001600160a01b038416036105dc575f80fd5b60045482101580156105f057506005548211155b6105f8575f80fd5b80600f1480610607575080601e145b61060f575f80fd5b5f61061d62015180426117b3565b905082600f5f8381526020019081526020015f205f82825461063f91906117d2565b9091555050600e545f828152600f6020526040902054111561065f575f80fd5b335f908152601060205260409020600f83900361068957600181015415610684575f80fd5b610697565b600381015415610697575f80fd5b80546001600160a01b03161580156106b757506001600160a01b03851615155b156107465780546001600160a01b0319166001600160a01b03861690811782555f9081526010602052604081206005018054916106f3836117eb565b90915550506001600160a01b038086165f90815260106020526040902054168015610744576001600160a01b0381165f90815260106020526040812060050180549161073e836117eb565b91905055505b505b6040516323b872dd60e01b815233600482015230602482015260448101859052730fb3c077479113df18f9f51dc282b09bb0461000906323b872dd906064016020604051808303815f875af11580156107a1573d5f803e3d5ffd5b505050506040513d601f19601f820116820180604052508101906107c59190611803565b505f6064600654866107d7919061181e565b6107e191906117b3565b90505f6064600754876107f4919061181e565b6107fe91906117b3565b83549091506001600160a01b03168015610a29576001600160a01b0381165f908152601060205260408120600601805485929061083c9084906117d2565b909155505060405163a9059cbb60e01b81526001600160a01b038216600482015260248101849052730fb3c077479113df18f9f51dc282b09bb04610009063a9059cbb906044016020604051808303815f875af115801561089f573d5f803e3d5ffd5b505050506040513d601f19601f820116820180604052508101906108c39190611803565b506001600160a01b038082165f9081526010602052604090205416801561099b576001600160a01b0381165f908152601060205260408120600601805485929061090e9084906117d2565b909155505060405163a9059cbb60e01b81526001600160a01b038216600482015260248101849052730fb3c077479113df18f9f51dc282b09bb04610009063a9059cbb906044016020604051808303815f875af1158015610971573d5f803e3d5ffd5b505050506040513d601f19601f820116820180604052508101906109959190611803565b50610a23565b60015460405163a9059cbb60e01b81526001600160a01b03909116600482015260248101849052730fb3c077479113df18f9f51dc282b09bb04610009063a9059cbb906044016020604051808303815f875af11580156109fd573d5f803e3d5ffd5b505050506040513d601f19601f82011682018060405250810190610a219190611803565b505b50610ac9565b600154730fb3c077479113df18f9f51dc282b09bb04610009063a9059cbb906001600160a01b0316610a5b85876117d2565b6040516001600160e01b031960e085901b1681526001600160a01b03909216600483015260248201526044016020604051808303815f875af1158015610aa3573d5f803e3d5ffd5b505050506040513d601f19601f82011682018060405250810190610ac79190611803565b505b610aeb606460085489610adc919061181e565b610ae691906117b3565b61141e565b600354600954730fb3c077479113df18f9f51dc282b09bb04610009163a9059cbb916001600160a01b0390911690606490610b26908c61181e565b610b3091906117b3565b6040516001600160e01b031960e085901b1681526001600160a01b03909216600483015260248201526044016020604051808303815f875af1158015610b78573d5f803e3d5ffd5b505050506040513d601f19601f82011682018060405250810190610b9c9190611803565b50600254600a54730fb3c077479113df18f9f51dc282b09bb04610009163a9059cbb916001600160a01b0390911690606490610bd8908c61181e565b610be291906117b3565b6040516001600160e01b031960e085901b1681526001600160a01b03909216600483015260248201526044016020604051808303815f875af1158015610c2a573d5f803e3d5ffd5b505050506040513d601f19601f82011682018060405250810190610c4e9190611803565b5085600f03610c695760018401879055426002850155610c77565b600384018790554260048501555b86600b5f828254610c8891906117d2565b90915550505050505050505050565b335f9081526010602052604090206002810154610cb7906213c6806117d2565b421015610cc2575f80fd5b5f610ccc33611178565b90505f8111610d115760405162461bcd60e51b8152602060048201526011602482015270139bc81c195b991a5b99c81c995dd85c99607a1b6044820152606401610547565b5f6001830181905560028301819055610d28610ec4565b610d3a83670de0b6b3a764000061181e565b610d4491906117b3565b6003546040516323b872dd60e01b81526001600160a01b0390911660048201523360248201526044810182905290915073372319bbffde74707aed44dd432c675a574a0770906323b872dd906064015b6020604051808303815f875af1158015610db0573d5f803e3d5ffd5b505050506040513d601f19601f82011682018060405250810190610dd49190611803565b50505050565b5f546001600160a01b03163314610e035760405162461bcd60e51b81526004016105479061176a565b600e55565b6001600160a01b0381165f90815260106020526040812060038101548203610e3257505f92915050565b5f606482600301546024610e46919061181e565b610e5091906117b3565b9050816004015462278d00610e6591906117d2565b4210610e72579392505050565b5f620151806103e88460030154600c610e8b919061181e565b610e9591906117b3565b610e9f91906117b3565b9050826004015442610eb19190611835565b610ebb908261181e565b95945050505050565b6040805160028082526060820183525f928392919060208301908036833701905050905073372319bbffde74707aed44dd432c675a574a0770815f81518110610f0f57610f0f61185c565b60200260200101906001600160a01b031690816001600160a01b031681525050730fb3c077479113df18f9f51dc282b09bb046100081600181518110610f5757610f5761185c565b6001600160a01b039092166020928302919091019091015260405163d06ca61f60e01b81525f90739ac64cc6e4415144c455bd8e4837fea55603e5c39063d06ca61f90610fb290670de0b6b3a76400009086906004016118b3565b5f60405180830381865afa158015610fcc573d5f803e3d5ffd5b505050506040513d5f823e601f3d908101601f19168201604052610ff391908101906118d3565b9050806001815181106110085761100861185c565b60200260200101519250505090565b335f90815260106020526040902060048101546110379062278d006117d2565b421015611042575f80fd5b5f61104c33610e08565b90505f81116110915760405162461bcd60e51b8152602060048201526011602482015270139bc81c195b991a5b99c81c995dd85c99607a1b6044820152606401610547565b5f6003830181905560048301819055610d28610ec4565b5f546001600160a01b031633146110d15760405162461bcd60e51b81526004016105479061176a565b600d805460ff1916911515919091179055565b5f546001600160a01b0316331461110d5760405162461bcd60e51b81526004016105479061176a565b5f80546040516001600160a01b03909116907f8be0079c531659141344cd1fd0a4f28419497f9722a3daafe3b4186f6b6457e0908390a35f80546001600160a01b0319169055565b5f8061116462015180426117b3565b5f908152600f602052604090205492915050565b6001600160a01b0381165f908152601060205260408120600181015482036111a257505f92915050565b5f60648260010154600f6111b6919061181e565b6111c091906117b3565b905081600201546213c6806111d591906117d2565b42106111e2579392505050565b5f62015180606484600101546111f891906117b3565b61120291906117b3565b9050826002015442610eb19190611835565b5f546001600160a01b0316331461123d5760405162461bcd60e51b81526004016105479061176a565b600280546001600160a01b039384166001600160a01b03199182161790915560038054929093169116179055565b5f546001600160a01b031633146112945760405162461bcd60e51b81526004016105479061176a565b60405163a9059cbb60e01b81526001600160a01b0383811660048301526024820183905284169063a9059cbb90604401610d94565b5f546001600160a01b031633146112f25760405162461bcd60e51b81526004016105479061176a565b600694909455600792909255600855600955600a55565b5f546001600160a01b031633146113325760405162461bcd60e51b81526004016105479061176a565b600c55565b5f546001600160a01b031633146113605760405162461bcd60e51b81526004016105479061176a565b6001600160a01b0381166113c55760405162461bcd60e51b815260206004820152602660248201527f4f776e61626c653a206e6577206f776e657220697320746865207a65726f206160448201526564647265737360d01b6064820152608401610547565b5f80546040516001600160a01b03808516939216917f8be0079c531659141344cd1fd0a4f28419497f9722a3daafe3b4186f6b6457e091a35f80546001600160a01b0319166001600160a01b0392909216919091179055565b6040805160028082526060820183525f92602083019080368337019050509050730fb3c077479113df18f9f51dc282b09bb0461000815f815181106114655761146561185c565b60200260200101906001600160a01b031690816001600160a01b03168152505073372319bbffde74707aed44dd432c675a574a0770816001815181106114ad576114ad61185c565b6001600160a01b039092166020928302919091019091015260405163d06ca61f60e01b81525f90739ac64cc6e4415144c455bd8e4837fea55603e5c39063d06ca61f9061150090869086906004016118b3565b5f60405180830381865afa15801561151a573d5f803e3d5ffd5b505050506040513d5f823e601f3d908101601f1916820160405261154191908101906118d3565b9050739ac64cc6e4415144c455bd8e4837fea55603e5c36001600160a01b0316635c11d795846064600c5460646115789190611835565b8560018151811061158b5761158b61185c565b602002602001015161159d919061181e565b6115a791906117b3565b855f426040518663ffffffff1660e01b81526004016115ca95949392919061198c565b5f604051808303815f87803b1580156115e1575f80fd5b505af11580156115f3573d5f803e3d5ffd5b50505050505050565b80356001600160a01b0381168114611612575f80fd5b919050565b5f60208284031215611627575f80fd5b611630826115fc565b9392505050565b5f8060408385031215611648575f80fd5b50508035926020909101359150565b5f805f60608486031215611669575f80fd5b611672846115fc565b95602085013595506040909401359392505050565b5f60208284031215611697575f80fd5b5035919050565b80151581146116ab575f80fd5b50565b5f602082840312156116be575f80fd5b81356116308161169e565b5f80604083850312156116da575f80fd5b6116e3836115fc565b91506116f1602084016115fc565b90509250929050565b5f805f6060848603121561170c575f80fd5b611715846115fc565b9250611723602085016115fc565b9150604084013590509250925092565b5f805f805f60a08688031215611747575f80fd5b505083359560208501359550604085013594606081013594506080013592509050565b6020808252818101527f4f776e61626c653a2063616c6c6572206973206e6f7420746865206f776e6572604082015260600190565b634e487b7160e01b5f52601160045260245ffd5b5f826117cd57634e487b7160e01b5f52601260045260245ffd5b500490565b808201808211156117e5576117e561179f565b92915050565b5f600182016117fc576117fc61179f565b5060010190565b5f60208284031215611813575f80fd5b81516116308161169e565b80820281158282048414176117e5576117e561179f565b818103818111156117e5576117e561179f565b634e487b7160e01b5f52604160045260245ffd5b634e487b7160e01b5f52603260045260245ffd5b5f815180845260208085019450602084015f5b838110156118a85781516001600160a01b031687529582019590820190600101611883565b509495945050505050565b828152604060208201525f6118cb6040830184611870565b949350505050565b5f60208083850312156118e4575f80fd5b825167ffffffffffffffff808211156118fb575f80fd5b818501915085601f83011261190e575f80fd5b81518181111561192057611920611848565b8060051b604051601f19603f8301168101818110858211171561194557611945611848565b604052918252848201925083810185019188831115611962575f80fd5b938501935b8285101561198057845184529385019392850192611967565b98975050505050505050565b85815284602082015260a060408201525f6119aa60a0830186611870565b6001600160a01b039490941660608301525060800152939250505056fea264697066735822122035893719356e267a90546395b2c3ed1c73b8a925e9ed2ee1ef8d2cfcc8779c1e64736f6c63430008180033",
			"opcodes": "PUSH1 0x80 PUSH1 0x40 MSTORE PUSH1 0x1 DUP1 SLOAD PUSH20 0x9EE20A74588A1D89E028A2BE4CCF842AC9352111 PUSH1 0x1 PUSH1 0x1 PUSH1 0xA0 SHL SUB NOT SWAP2 DUP3 AND DUP2 OR DUP4 SSTORE PUSH1 0x2 DUP1 SLOAD DUP4 AND DUP3 OR SWAP1 SSTORE PUSH1 0x3 DUP1 SLOAD SWAP1 SWAP3 AND OR DUP2 SSTORE PUSH9 0x56BC75E2D63100000 PUSH1 0x4 SSTORE PUSH9 0x6C6B935B8BBD400000 PUSH1 0x5 SSTORE PUSH1 0x7 PUSH1 0x6 DUP2 SWAP1 SSTORE SSTORE PUSH1 0x1E PUSH1 0x8 SSTORE PUSH1 0x32 PUSH1 0x9 SSTORE PUSH1 0xA DUP1 DUP1 SSTORE PUSH1 0xC SSTORE PUSH1 0xD DUP1 SLOAD PUSH1 0xFF NOT AND SWAP1 SWAP2 OR SWAP1 SSTORE PUSH10 0x65A4DA25D3016C00000 PUSH1 0xE SSTORE CALLVALUE DUP1 ISZERO PUSH2 0x9B JUMPI PUSH0 DUP1 REVERT JUMPDEST POP PUSH0 DUP1 SLOAD PUSH1 0x1 PUSH1 0x1 PUSH1 0xA0 SHL SUB NOT AND CALLER SWAP1 DUP2 OR DUP3 SSTORE PUSH1 0x40 MLOAD SWAP1 SWAP2 DUP3 SWAP2 PUSH32 0x8BE0079C531659141344CD1FD0A4F28419497F9722A3DAAFE3B4186F6B6457E0 SWAP1 DUP3 SWAP1 LOG3 POP PUSH1 0x40 MLOAD PUSH4 0x95EA7B3 PUSH1 0xE0 SHL DUP2 MSTORE PUSH20 0x9AC64CC6E4415144C455BD8E4837FEA55603E5C3 PUSH1 0x4 DUP3 ADD MSTORE PUSH0 NOT PUSH1 0x24 DUP3 ADD MSTORE PUSH20 0xFB3C077479113DF18F9F51DC282B09BB0461000 SWAP1 PUSH4 0x95EA7B3 SWAP1 PUSH1 0x44 ADD PUSH1 0x20 PUSH1 0x40 MLOAD DUP1 DUP4 SUB DUP2 PUSH0 DUP8 GAS CALL ISZERO DUP1 ISZERO PUSH2 0x145 JUMPI RETURNDATASIZE PUSH0 DUP1 RETURNDATACOPY RETURNDATASIZE PUSH0 REVERT JUMPDEST POP POP POP POP PUSH1 0x40 MLOAD RETURNDATASIZE PUSH1 0x1F NOT PUSH1 0x1F DUP3 ADD AND DUP3 ADD DUP1 PUSH1 0x40 MSTORE POP DUP2 ADD SWAP1 PUSH2 0x169 SWAP2 SWAP1 PUSH2 0x16F JUMP JUMPDEST POP PUSH2 0x195 JUMP JUMPDEST PUSH0 PUSH1 0x20 DUP3 DUP5 SUB SLT ISZERO PUSH2 0x17F JUMPI PUSH0 DUP1 REVERT JUMPDEST DUP2 MLOAD DUP1 ISZERO ISZERO DUP2 EQ PUSH2 0x18E JUMPI PUSH0 DUP1 REVERT JUMPDEST SWAP4 SWAP3 POP POP POP JUMP JUMPDEST PUSH2 0x19FD DUP1 PUSH2 0x1A2 PUSH0 CODECOPY PUSH0 RETURN INVALID PUSH1 0x80 PUSH1 0x40 MSTORE CALLVALUE DUP1 ISZERO PUSH2 0xF JUMPI PUSH0 DUP1 REVERT JUMPDEST POP PUSH1 0x4 CALLDATASIZE LT PUSH2 0x21E JUMPI PUSH0 CALLDATALOAD PUSH1 0xE0 SHR DUP1 PUSH4 0x7E635770 GT PUSH2 0x12A JUMPI DUP1 PUSH4 0xB2118A8D GT PUSH2 0xB4 JUMPI DUP1 PUSH4 0xD3A8EB4B GT PUSH2 0x79 JUMPI DUP1 PUSH4 0xD3A8EB4B EQ PUSH2 0x4C9 JUMPI DUP1 PUSH4 0xE078E9F7 EQ PUSH2 0x4D2 JUMPI DUP1 PUSH4 0xF0FA55A9 EQ PUSH2 0x4E5 JUMPI DUP1 PUSH4 0xF2FDE38B EQ PUSH2 0x4F8 JUMPI DUP1 PUSH4 0xFBFA77CF EQ PUSH2 0x50B JUMPI PUSH0 DUP1 REVERT JUMPDEST DUP1 PUSH4 0xB2118A8D EQ PUSH2 0x462 JUMPI DUP1 PUSH4 0xBE9A6555 EQ PUSH2 0x475 JUMPI DUP1 PUSH4 0xC3039351 EQ PUSH2 0x492 JUMPI DUP1 PUSH4 0xC54E44EB EQ PUSH2 0x49B JUMPI DUP1 PUSH4 0xC63A695C EQ PUSH2 0x4B6 JUMPI PUSH0 DUP1 REVERT JUMPDEST DUP1 PUSH4 0x8DA5CB5B GT PUSH2 0xFA JUMPI DUP1 PUSH4 0x8DA5CB5B EQ PUSH2 0x424 JUMPI DUP1 PUSH4 0x9665E82A EQ PUSH2 0x434 JUMPI DUP1 PUSH4 0x9718A93B EQ PUSH2 0x43D JUMPI DUP1 PUSH4 0x9B2CB5D8 EQ PUSH2 0x450 JUMPI DUP1 PUSH4 0xB1BB9CD7 EQ PUSH2 0x459 JUMPI PUSH0 DUP1 REVERT JUMPDEST DUP1 PUSH4 0x7E635770 EQ PUSH2 0x3F7 JUMPI DUP1 PUSH4 0x817B1CD2 EQ PUSH2 0x3FF JUMPI DUP1 PUSH4 0x847239A7 EQ PUSH2 0x408 JUMPI DUP1 PUSH4 0x87B14302 EQ PUSH2 0x41B JUMPI PUSH0 DUP1 REVERT JUMPDEST DUP1 PUSH4 0x32FE7B26 GT PUSH2 0x1AB JUMPI DUP1 PUSH4 0x4A5064A9 GT PUSH2 0x17B JUMPI DUP1 PUSH4 0x4A5064A9 EQ PUSH2 0x3AF JUMPI DUP1 PUSH4 0x5F48F393 EQ PUSH2 0x3B8 JUMPI DUP1 PUSH4 0x68E24327 EQ PUSH2 0x3C1 JUMPI DUP1 PUSH4 0x6D090BD5 EQ PUSH2 0x3D4 JUMPI DUP1 PUSH4 0x715018A6 EQ PUSH2 0x3EF JUMPI PUSH0 DUP1 REVERT JUMPDEST DUP1 PUSH4 0x32FE7B26 EQ PUSH2 0x358 JUMPI DUP1 PUSH4 0x390D1219 EQ PUSH2 0x38B JUMPI DUP1 PUSH4 0x3E032A3B EQ PUSH2 0x393 JUMPI DUP1 PUSH4 0x3FF42B92 EQ PUSH2 0x39C JUMPI PUSH0 DUP1 REVERT JUMPDEST DUP1 PUSH4 0x12E0B6DE GT PUSH2 0x1F1 JUMPI DUP1 PUSH4 0x12E0B6DE EQ PUSH2 0x265 JUMPI DUP1 PUSH4 0x166DF0D1 EQ PUSH2 0x278 JUMPI DUP1 PUSH4 0x1959A002 EQ PUSH2 0x2AA JUMPI DUP1 PUSH4 0x2523FF0C EQ PUSH2 0x33D JUMPI DUP1 PUSH4 0x30B9EA28 EQ PUSH2 0x350 JUMPI PUSH0 DUP1 REVERT JUMPDEST DUP1 PUSH4 0x4824E70 EQ PUSH2 0x222 JUMPI DUP1 PUSH4 0x58DF89F EQ PUSH2 0x237 JUMPI DUP1 PUSH4 0xC51B88F EQ PUSH2 0x24A JUMPI DUP1 PUSH4 0xE8FF105 EQ PUSH2 0x25D JUMPI JUMPDEST PUSH0 DUP1 REVERT JUMPDEST PUSH2 0x235 PUSH2 0x230 CALLDATASIZE PUSH1 0x4 PUSH2 0x1617 JUMP JUMPDEST PUSH2 0x51E JUMP JUMPDEST STOP JUMPDEST PUSH2 0x235 PUSH2 0x245 CALLDATASIZE PUSH1 0x4 PUSH2 0x1637 JUMP JUMPDEST PUSH2 0x586 JUMP JUMPDEST PUSH2 0x235 PUSH2 0x258 CALLDATASIZE PUSH1 0x4 PUSH2 0x1657 JUMP JUMPDEST PUSH2 0x5BA JUMP JUMPDEST PUSH2 0x235 PUSH2 0xC97 JUMP JUMPDEST PUSH2 0x235 PUSH2 0x273 CALLDATASIZE PUSH1 0x4 PUSH2 0x1687 JUMP JUMPDEST PUSH2 0xDDA JUMP JUMPDEST PUSH2 0x297 PUSH2 0x286 CALLDATASIZE PUSH1 0x4 PUSH2 0x1687 JUMP JUMPDEST PUSH1 0xF PUSH1 0x20 MSTORE PUSH0 SWAP1 DUP2 MSTORE PUSH1 0x40 SWAP1 KECCAK256 SLOAD DUP2 JUMP JUMPDEST PUSH1 0x40 MLOAD SWAP1 DUP2 MSTORE PUSH1 0x20 ADD JUMPDEST PUSH1 0x40 MLOAD DUP1 SWAP2 SUB SWAP1 RETURN JUMPDEST PUSH2 0x2FE PUSH2 0x2B8 CALLDATASIZE PUSH1 0x4 PUSH2 0x1617 JUMP JUMPDEST PUSH1 0x10 PUSH1 0x20 MSTORE PUSH0 SWAP1 DUP2 MSTORE PUSH1 0x40 SWAP1 KECCAK256 DUP1 SLOAD PUSH1 0x1 DUP3 ADD SLOAD PUSH1 0x2 DUP4 ADD SLOAD PUSH1 0x3 DUP5 ADD SLOAD PUSH1 0x4 DUP6 ADD SLOAD PUSH1 0x5 DUP7 ADD SLOAD PUSH1 0x6 SWAP1 SWAP7 ADD SLOAD PUSH1 0x1 PUSH1 0x1 PUSH1 0xA0 SHL SUB SWAP1 SWAP6 AND SWAP6 SWAP4 SWAP5 SWAP3 SWAP4 SWAP2 SWAP3 SWAP1 SWAP2 SWAP1 DUP8 JUMP JUMPDEST PUSH1 0x40 DUP1 MLOAD PUSH1 0x1 PUSH1 0x1 PUSH1 0xA0 SHL SUB SWAP1 SWAP9 AND DUP9 MSTORE PUSH1 0x20 DUP9 ADD SWAP7 SWAP1 SWAP7 MSTORE SWAP5 DUP7 ADD SWAP4 SWAP1 SWAP4 MSTORE PUSH1 0x60 DUP6 ADD SWAP2 SWAP1 SWAP2 MSTORE PUSH1 0x80 DUP5 ADD MSTORE PUSH1 0xA0 DUP4 ADD MSTORE PUSH1 0xC0 DUP3 ADD MSTORE PUSH1 0xE0 ADD PUSH2 0x2A1 JUMP JUMPDEST PUSH2 0x297 PUSH2 0x34B CALLDATASIZE PUSH1 0x4 PUSH2 0x1617 JUMP JUMPDEST PUSH2 0xE08 JUMP JUMPDEST PUSH2 0x297 PUSH2 0xEC4 JUMP JUMPDEST PUSH2 0x373 PUSH20 0x9AC64CC6E4415144C455BD8E4837FEA55603E5C3 DUP2 JUMP JUMPDEST PUSH1 0x40 MLOAD PUSH1 0x1 PUSH1 0x1 PUSH1 0xA0 SHL SUB SWAP1 SWAP2 AND DUP2 MSTORE PUSH1 0x20 ADD PUSH2 0x2A1 JUMP JUMPDEST PUSH2 0x235 PUSH2 0x1017 JUMP JUMPDEST PUSH2 0x297 PUSH1 0xC SLOAD DUP2 JUMP JUMPDEST PUSH1 0x2 SLOAD PUSH2 0x373 SWAP1 PUSH1 0x1 PUSH1 0x1 PUSH1 0xA0 SHL SUB AND DUP2 JUMP JUMPDEST PUSH2 0x297 PUSH1 0x7 SLOAD DUP2 JUMP JUMPDEST PUSH2 0x297 PUSH1 0x5 SLOAD DUP2 JUMP JUMPDEST PUSH2 0x235 PUSH2 0x3CF CALLDATASIZE PUSH1 0x4 PUSH2 0x16AE JUMP JUMPDEST PUSH2 0x10A8 JUMP JUMPDEST PUSH2 0x373 PUSH20 0x372319BBFFDE74707AED44DD432C675A574A0770 DUP2 JUMP JUMPDEST PUSH2 0x235 PUSH2 0x10E4 JUMP JUMPDEST PUSH2 0x297 PUSH2 0x1155 JUMP JUMPDEST PUSH2 0x297 PUSH1 0xB SLOAD DUP2 JUMP JUMPDEST PUSH2 0x297 PUSH2 0x416 CALLDATASIZE PUSH1 0x4 PUSH2 0x1617 JUMP JUMPDEST PUSH2 0x1178 JUMP JUMPDEST PUSH2 0x297 PUSH1 0xA SLOAD DUP2 JUMP JUMPDEST PUSH0 SLOAD PUSH1 0x1 PUSH1 0x1 PUSH1 0xA0 SHL SUB AND PUSH2 0x373 JUMP JUMPDEST PUSH2 0x297 PUSH1 0x6 SLOAD DUP2 JUMP JUMPDEST PUSH2 0x235 PUSH2 0x44B CALLDATASIZE PUSH1 0x4 PUSH2 0x16C9 JUMP JUMPDEST PUSH2 0x1214 JUMP JUMPDEST PUSH2 0x297 PUSH1 0x4 SLOAD DUP2 JUMP JUMPDEST PUSH2 0x297 PUSH1 0x9 SLOAD DUP2 JUMP JUMPDEST PUSH2 0x235 PUSH2 0x470 CALLDATASIZE PUSH1 0x4 PUSH2 0x16FA JUMP JUMPDEST PUSH2 0x126B JUMP JUMPDEST PUSH1 0xD SLOAD PUSH2 0x482 SWAP1 PUSH1 0xFF AND DUP2 JUMP JUMPDEST PUSH1 0x40 MLOAD SWAP1 ISZERO ISZERO DUP2 MSTORE PUSH1 0x20 ADD PUSH2 0x2A1 JUMP JUMPDEST PUSH2 0x297 PUSH1 0xE SLOAD DUP2 JUMP JUMPDEST PUSH2 0x373 PUSH20 0xFB3C077479113DF18F9F51DC282B09BB0461000 DUP2 JUMP JUMPDEST PUSH1 0x1 SLOAD PUSH2 0x373 SWAP1 PUSH1 0x1 PUSH1 0x1 PUSH1 0xA0 SHL SUB AND DUP2 JUMP JUMPDEST PUSH2 0x297 PUSH1 0x8 SLOAD DUP2 JUMP JUMPDEST PUSH2 0x235 PUSH2 0x4E0 CALLDATASIZE PUSH1 0x4 PUSH2 0x1733 JUMP JUMPDEST PUSH2 0x12C9 JUMP JUMPDEST PUSH2 0x235 PUSH2 0x4F3 CALLDATASIZE PUSH1 0x4 PUSH2 0x1687 JUMP JUMPDEST PUSH2 0x1309 JUMP JUMPDEST PUSH2 0x235 PUSH2 0x506 CALLDATASIZE PUSH1 0x4 PUSH2 0x1617 JUMP JUMPDEST PUSH2 0x1337 JUMP JUMPDEST PUSH1 0x3 SLOAD PUSH2 0x373 SWAP1 PUSH1 0x1 PUSH1 0x1 PUSH1 0xA0 SHL SUB AND DUP2 JUMP JUMPDEST PUSH0 SLOAD PUSH1 0x1 PUSH1 0x1 PUSH1 0xA0 SHL SUB AND CALLER EQ PUSH2 0x550 JUMPI PUSH1 0x40 MLOAD PUSH3 0x461BCD PUSH1 0xE5 SHL DUP2 MSTORE PUSH1 0x4 ADD PUSH2 0x547 SWAP1 PUSH2 0x176A JUMP JUMPDEST PUSH1 0x40 MLOAD DUP1 SWAP2 SUB SWAP1 REVERT JUMPDEST PUSH1 0x40 MLOAD PUSH1 0x1 PUSH1 0x1 PUSH1 0xA0 SHL SUB DUP3 AND SWAP1 SELFBALANCE DUP1 ISZERO PUSH2 0x8FC MUL SWAP2 PUSH0 DUP2 DUP2 DUP2 DUP6 DUP9 DUP9 CALL SWAP4 POP POP POP POP ISZERO DUP1 ISZERO PUSH2 0x582 JUMPI RETURNDATASIZE PUSH0 DUP1 RETURNDATACOPY RETURNDATASIZE PUSH0 REVERT JUMPDEST POP POP JUMP JUMPDEST PUSH0 SLOAD PUSH1 0x1 PUSH1 0x1 PUSH1 0xA0 SHL SUB AND CALLER EQ PUSH2 0x5AF JUMPI PUSH1 0x40 MLOAD PUSH3 0x461BCD PUSH1 0xE5 SHL DUP2 MSTORE PUSH1 0x4 ADD PUSH2 0x547 SWAP1 PUSH2 0x176A JUMP JUMPDEST PUSH1 0x4 SWAP2 SWAP1 SWAP2 SSTORE PUSH1 0x5 SSTORE JUMP JUMPDEST PUSH1 0xD SLOAD PUSH1 0xFF AND PUSH2 0x5C8 JUMPI PUSH0 DUP1 REVERT JUMPDEST CALLER PUSH1 0x1 PUSH1 0x1 PUSH1 0xA0 SHL SUB DUP5 AND SUB PUSH2 0x5DC JUMPI PUSH0 DUP1 REVERT JUMPDEST PUSH1 0x4 SLOAD DUP3 LT ISZERO DUP1 ISZERO PUSH2 0x5F0 JUMPI POP PUSH1 0x5 SLOAD DUP3 GT ISZERO JUMPDEST PUSH2 0x5F8 JUMPI PUSH0 DUP1 REVERT JUMPDEST DUP1 PUSH1 0xF EQ DUP1 PUSH2 0x607 JUMPI POP DUP1 PUSH1 0x1E EQ JUMPDEST PUSH2 0x60F JUMPI PUSH0 DUP1 REVERT JUMPDEST PUSH0 PUSH2 0x61D PUSH3 0x15180 TIMESTAMP PUSH2 0x17B3 JUMP JUMPDEST SWAP1 POP DUP3 PUSH1 0xF PUSH0 DUP4 DUP2 MSTORE PUSH1 0x20 ADD SWAP1 DUP2 MSTORE PUSH1 0x20 ADD PUSH0 KECCAK256 PUSH0 DUP3 DUP3 SLOAD PUSH2 0x63F SWAP2 SWAP1 PUSH2 0x17D2 JUMP JUMPDEST SWAP1 SWAP2 SSTORE POP POP PUSH1 0xE SLOAD PUSH0 DUP3 DUP2 MSTORE PUSH1 0xF PUSH1 0x20 MSTORE PUSH1 0x40 SWAP1 KECCAK256 SLOAD GT ISZERO PUSH2 0x65F JUMPI PUSH0 DUP1 REVERT JUMPDEST CALLER PUSH0 SWAP1 DUP2 MSTORE PUSH1 0x10 PUSH1 0x20 MSTORE PUSH1 0x40 SWAP1 KECCAK256 PUSH1 0xF DUP4 SWAP1 SUB PUSH2 0x689 JUMPI PUSH1 0x1 DUP2 ADD SLOAD ISZERO PUSH2 0x684 JUMPI PUSH0 DUP1 REVERT JUMPDEST PUSH2 0x697 JUMP JUMPDEST PUSH1 0x3 DUP2 ADD SLOAD ISZERO PUSH2 0x697 JUMPI PUSH0 DUP1 REVERT JUMPDEST DUP1 SLOAD PUSH1 0x1 PUSH1 0x1 PUSH1 0xA0 SHL SUB AND ISZERO DUP1 ISZERO PUSH2 0x6B7 JUMPI POP PUSH1 0x1 PUSH1 0x1 PUSH1 0xA0 SHL SUB DUP6 AND ISZERO ISZERO JUMPDEST ISZERO PUSH2 0x746 JUMPI DUP1 SLOAD PUSH1 0x1 PUSH1 0x1 PUSH1 0xA0 SHL SUB NOT AND PUSH1 0x1 PUSH1 0x1 PUSH1 0xA0 SHL SUB DUP7 AND SWAP1 DUP2 OR DUP3 SSTORE PUSH0 SWAP1 DUP2 MSTORE PUSH1 0x10 PUSH1 0x20 MSTORE PUSH1 0x40 DUP2 KECCAK256 PUSH1 0x5 ADD DUP1 SLOAD SWAP2 PUSH2 0x6F3 DUP4 PUSH2 0x17EB JUMP JUMPDEST SWAP1 SWAP2 SSTORE POP POP PUSH1 0x1 PUSH1 0x1 PUSH1 0xA0 SHL SUB DUP1 DUP7 AND PUSH0 SWAP1 DUP2 MSTORE PUSH1 0x10 PUSH1 0x20 MSTORE PUSH1 0x40 SWAP1 KECCAK256 SLOAD AND DUP1 ISZERO PUSH2 0x744 JUMPI PUSH1 0x1 PUSH1 0x1 PUSH1 0xA0 SHL SUB DUP2 AND PUSH0 SWAP1 DUP2 MSTORE PUSH1 0x10 PUSH1 0x20 MSTORE PUSH1 0x40 DUP2 KECCAK256 PUSH1 0x5 ADD DUP1 SLOAD SWAP2 PUSH2 0x73E DUP4 PUSH2 0x17EB JUMP JUMPDEST SWAP2 SWAP1 POP SSTORE POP JUMPDEST POP JUMPDEST PUSH1 0x40 MLOAD PUSH4 0x23B872DD PUSH1 0xE0 SHL DUP2 MSTORE CALLER PUSH1 0x4 DUP3 ADD MSTORE ADDRESS PUSH1 0x24 DUP3 ADD MSTORE PUSH1 0x44 DUP2 ADD DUP6 SWAP1 MSTORE PUSH20 0xFB3C077479113DF18F9F51DC282B09BB0461000 SWAP1 PUSH4 0x23B872DD SWAP1 PUSH1 0x64 ADD PUSH1 0x20 PUSH1 0x40 MLOAD DUP1 DUP4 SUB DUP2 PUSH0 DUP8 GAS CALL ISZERO DUP1 ISZERO PUSH2 0x7A1 JUMPI RETURNDATASIZE PUSH0 DUP1 RETURNDATACOPY RETURNDATASIZE PUSH0 REVERT JUMPDEST POP POP POP POP PUSH1 0x40 MLOAD RETURNDATASIZE PUSH1 0x1F NOT PUSH1 0x1F DUP3 ADD AND DUP3 ADD DUP1 PUSH1 0x40 MSTORE POP DUP2 ADD SWAP1 PUSH2 0x7C5 SWAP2 SWAP1 PUSH2 0x1803 JUMP JUMPDEST POP PUSH0 PUSH1 0x64 PUSH1 0x6 SLOAD DUP7 PUSH2 0x7D7 SWAP2 SWAP1 PUSH2 0x181E JUMP JUMPDEST PUSH2 0x7E1 SWAP2 SWAP1 PUSH2 0x17B3 JUMP JUMPDEST SWAP1 POP PUSH0 PUSH1 0x64 PUSH1 0x7 SLOAD DUP8 PUSH2 0x7F4 SWAP2 SWAP1 PUSH2 0x181E JUMP JUMPDEST PUSH2 0x7FE SWAP2 SWAP1 PUSH2 0x17B3 JUMP JUMPDEST DUP4 SLOAD SWAP1 SWAP2 POP PUSH1 0x1 PUSH1 0x1 PUSH1 0xA0 SHL SUB AND DUP1 ISZERO PUSH2 0xA29 JUMPI PUSH1 0x1 PUSH1 0x1 PUSH1 0xA0 SHL SUB DUP2 AND PUSH0 SWAP1 DUP2 MSTORE PUSH1 0x10 PUSH1 0x20 MSTORE PUSH1 0x40 DUP2 KECCAK256 PUSH1 0x6 ADD DUP1 SLOAD DUP6 SWAP3 SWAP1 PUSH2 0x83C SWAP1 DUP5 SWAP1 PUSH2 0x17D2 JUMP JUMPDEST SWAP1 SWAP2 SSTORE POP POP PUSH1 0x40 MLOAD PUSH4 0xA9059CBB PUSH1 0xE0 SHL DUP2 MSTORE PUSH1 0x1 PUSH1 0x1 PUSH1 0xA0 SHL SUB DUP3 AND PUSH1 0x4 DUP3 ADD MSTORE PUSH1 0x24 DUP2 ADD DUP5 SWAP1 MSTORE PUSH20 0xFB3C077479113DF18F9F51DC282B09BB0461000 SWAP1 PUSH4 0xA9059CBB SWAP1 PUSH1 0x44 ADD PUSH1 0x20 PUSH1 0x40 MLOAD DUP1 DUP4 SUB DUP2 PUSH0 DUP8 GAS CALL ISZERO DUP1 ISZERO PUSH2 0x89F JUMPI RETURNDATASIZE PUSH0 DUP1 RETURNDATACOPY RETURNDATASIZE PUSH0 REVERT JUMPDEST POP POP POP POP PUSH1 0x40 MLOAD RETURNDATASIZE PUSH1 0x1F NOT PUSH1 0x1F DUP3 ADD AND DUP3 ADD DUP1 PUSH1 0x40 MSTORE POP DUP2 ADD SWAP1 PUSH2 0x8C3 SWAP2 SWAP1 PUSH2 0x1803 JUMP JUMPDEST POP PUSH1 0x1 PUSH1 0x1 PUSH1 0xA0 SHL SUB DUP1 DUP3 AND PUSH0 SWAP1 DUP2 MSTORE PUSH1 0x10 PUSH1 0x20 MSTORE PUSH1 0x40 SWAP1 KECCAK256 SLOAD AND DUP1 ISZERO PUSH2 0x99B JUMPI PUSH1 0x1 PUSH1 0x1 PUSH1 0xA0 SHL SUB DUP2 AND PUSH0 SWAP1 DUP2 MSTORE PUSH1 0x10 PUSH1 0x20 MSTORE PUSH1 0x40 DUP2 KECCAK256 PUSH1 0x6 ADD DUP1 SLOAD DUP6 SWAP3 SWAP1 PUSH2 0x90E SWAP1 DUP5 SWAP1 PUSH2 0x17D2 JUMP JUMPDEST SWAP1 SWAP2 SSTORE POP POP PUSH1 0x40 MLOAD PUSH4 0xA9059CBB PUSH1 0xE0 SHL DUP2 MSTORE PUSH1 0x1 PUSH1 0x1 PUSH1 0xA0 SHL SUB DUP3 AND PUSH1 0x4 DUP3 ADD MSTORE PUSH1 0x24 DUP2 ADD DUP5 SWAP1 MSTORE PUSH20 0xFB3C077479113DF18F9F51DC282B09BB0461000 SWAP1 PUSH4 0xA9059CBB SWAP1 PUSH1 0x44 ADD PUSH1 0x20 PUSH1 0x40 MLOAD DUP1 DUP4 SUB DUP2 PUSH0 DUP8 GAS CALL ISZERO DUP1 ISZERO PUSH2 0x971 JUMPI RETURNDATASIZE PUSH0 DUP1 RETURNDATACOPY RETURNDATASIZE PUSH0 REVERT JUMPDEST POP POP POP POP PUSH1 0x40 MLOAD RETURNDATASIZE PUSH1 0x1F NOT PUSH1 0x1F DUP3 ADD AND DUP3 ADD DUP1 PUSH1 0x40 MSTORE POP DUP2 ADD SWAP1 PUSH2 0x995 SWAP2 SWAP1 PUSH2 0x1803 JUMP JUMPDEST POP PUSH2 0xA23 JUMP JUMPDEST PUSH1 0x1 SLOAD PUSH1 0x40 MLOAD PUSH4 0xA9059CBB PUSH1 0xE0 SHL DUP2 MSTORE PUSH1 0x1 PUSH1 0x1 PUSH1 0xA0 SHL SUB SWAP1 SWAP2 AND PUSH1 0x4 DUP3 ADD MSTORE PUSH1 0x24 DUP2 ADD DUP5 SWAP1 MSTORE PUSH20 0xFB3C077479113DF18F9F51DC282B09BB0461000 SWAP1 PUSH4 0xA9059CBB SWAP1 PUSH1 0x44 ADD PUSH1 0x20 PUSH1 0x40 MLOAD DUP1 DUP4 SUB DUP2 PUSH0 DUP8 GAS CALL ISZERO DUP1 ISZERO PUSH2 0x9FD JUMPI RETURNDATASIZE PUSH0 DUP1 RETURNDATACOPY RETURNDATASIZE PUSH0 REVERT JUMPDEST POP POP POP POP PUSH1 0x40 MLOAD RETURNDATASIZE PUSH1 0x1F NOT PUSH1 0x1F DUP3 ADD AND DUP3 ADD DUP1 PUSH1 0x40 MSTORE POP DUP2 ADD SWAP1 PUSH2 0xA21 SWAP2 SWAP1 PUSH2 0x1803 JUMP JUMPDEST POP JUMPDEST POP PUSH2 0xAC9 JUMP JUMPDEST PUSH1 0x1 SLOAD PUSH20 0xFB3C077479113DF18F9F51DC282B09BB0461000 SWAP1 PUSH4 0xA9059CBB SWAP1 PUSH1 0x1 PUSH1 0x1 PUSH1 0xA0 SHL SUB AND PUSH2 0xA5B DUP6 DUP8 PUSH2 0x17D2 JUMP JUMPDEST PUSH1 0x40 MLOAD PUSH1 0x1 PUSH1 0x1 PUSH1 0xE0 SHL SUB NOT PUSH1 0xE0 DUP6 SWAP1 SHL AND DUP2 MSTORE PUSH1 0x1 PUSH1 0x1 PUSH1 0xA0 SHL SUB SWAP1 SWAP3 AND PUSH1 0x4 DUP4 ADD MSTORE PUSH1 0x24 DUP3 ADD MSTORE PUSH1 0x44 ADD PUSH1 0x20 PUSH1 0x40 MLOAD DUP1 DUP4 SUB DUP2 PUSH0 DUP8 GAS CALL ISZERO DUP1 ISZERO PUSH2 0xAA3 JUMPI RETURNDATASIZE PUSH0 DUP1 RETURNDATACOPY RETURNDATASIZE PUSH0 REVERT JUMPDEST POP POP POP POP PUSH1 0x40 MLOAD RETURNDATASIZE PUSH1 0x1F NOT PUSH1 0x1F DUP3 ADD AND DUP3 ADD DUP1 PUSH1 0x40 MSTORE POP DUP2 ADD SWAP1 PUSH2 0xAC7 SWAP2 SWAP1 PUSH2 0x1803 JUMP JUMPDEST POP JUMPDEST PUSH2 0xAEB PUSH1 0x64 PUSH1 0x8 SLOAD DUP10 PUSH2 0xADC SWAP2 SWAP1 PUSH2 0x181E JUMP JUMPDEST PUSH2 0xAE6 SWAP2 SWAP1 PUSH2 0x17B3 JUMP JUMPDEST PUSH2 0x141E JUMP JUMPDEST PUSH1 0x3 SLOAD PUSH1 0x9 SLOAD PUSH20 0xFB3C077479113DF18F9F51DC282B09BB0461000 SWAP2 PUSH4 0xA9059CBB SWAP2 PUSH1 0x1 PUSH1 0x1 PUSH1 0xA0 SHL SUB SWAP1 SWAP2 AND SWAP1 PUSH1 0x64 SWAP1 PUSH2 0xB26 SWAP1 DUP13 PUSH2 0x181E JUMP JUMPDEST PUSH2 0xB30 SWAP2 SWAP1 PUSH2 0x17B3 JUMP JUMPDEST PUSH1 0x40 MLOAD PUSH1 0x1 PUSH1 0x1 PUSH1 0xE0 SHL SUB NOT PUSH1 0xE0 DUP6 SWAP1 SHL AND DUP2 MSTORE PUSH1 0x1 PUSH1 0x1 PUSH1 0xA0 SHL SUB SWAP1 SWAP3 AND PUSH1 0x4 DUP4 ADD MSTORE PUSH1 0x24 DUP3 ADD MSTORE PUSH1 0x44 ADD PUSH1 0x20 PUSH1 0x40 MLOAD DUP1 DUP4 SUB DUP2 PUSH0 DUP8 GAS CALL ISZERO DUP1 ISZERO PUSH2 0xB78 JUMPI RETURNDATASIZE PUSH0 DUP1 RETURNDATACOPY RETURNDATASIZE PUSH0 REVERT JUMPDEST POP POP POP POP PUSH1 0x40 MLOAD RETURNDATASIZE PUSH1 0x1F NOT PUSH1 0x1F DUP3 ADD AND DUP3 ADD DUP1 PUSH1 0x40 MSTORE POP DUP2 ADD SWAP1 PUSH2 0xB9C SWAP2 SWAP1 PUSH2 0x1803 JUMP JUMPDEST POP PUSH1 0x2 SLOAD PUSH1 0xA SLOAD PUSH20 0xFB3C077479113DF18F9F51DC282B09BB0461000 SWAP2 PUSH4 0xA9059CBB SWAP2 PUSH1 0x1 PUSH1 0x1 PUSH1 0xA0 SHL SUB SWAP1 SWAP2 AND SWAP1 PUSH1 0x64 SWAP1 PUSH2 0xBD8 SWAP1 DUP13 PUSH2 0x181E JUMP JUMPDEST PUSH2 0xBE2 SWAP2 SWAP1 PUSH2 0x17B3 JUMP JUMPDEST PUSH1 0x40 MLOAD PUSH1 0x1 PUSH1 0x1 PUSH1 0xE0 SHL SUB NOT PUSH1 0xE0 DUP6 SWAP1 SHL AND DUP2 MSTORE PUSH1 0x1 PUSH1 0x1 PUSH1 0xA0 SHL SUB SWAP1 SWAP3 AND PUSH1 0x4 DUP4 ADD MSTORE PUSH1 0x24 DUP3 ADD MSTORE PUSH1 0x44 ADD PUSH1 0x20 PUSH1 0x40 MLOAD DUP1 DUP4 SUB DUP2 PUSH0 DUP8 GAS CALL ISZERO DUP1 ISZERO PUSH2 0xC2A JUMPI RETURNDATASIZE PUSH0 DUP1 RETURNDATACOPY RETURNDATASIZE PUSH0 REVERT JUMPDEST POP POP POP POP PUSH1 0x40 MLOAD RETURNDATASIZE PUSH1 0x1F NOT PUSH1 0x1F DUP3 ADD AND DUP3 ADD DUP1 PUSH1 0x40 MSTORE POP DUP2 ADD SWAP1 PUSH2 0xC4E SWAP2 SWAP1 PUSH2 0x1803 JUMP JUMPDEST POP DUP6 PUSH1 0xF SUB PUSH2 0xC69 JUMPI PUSH1 0x1 DUP5 ADD DUP8 SWAP1 SSTORE TIMESTAMP PUSH1 0x2 DUP6 ADD SSTORE PUSH2 0xC77 JUMP JUMPDEST PUSH1 0x3 DUP5 ADD DUP8 SWAP1 SSTORE TIMESTAMP PUSH1 0x4 DUP6 ADD SSTORE JUMPDEST DUP7 PUSH1 0xB PUSH0 DUP3 DUP3 SLOAD PUSH2 0xC88 SWAP2 SWAP1 PUSH2 0x17D2 JUMP JUMPDEST SWAP1 SWAP2 SSTORE POP POP POP POP POP POP POP POP POP POP JUMP JUMPDEST CALLER PUSH0 SWAP1 DUP2 MSTORE PUSH1 0x10 PUSH1 0x20 MSTORE PUSH1 0x40 SWAP1 KECCAK256 PUSH1 0x2 DUP2 ADD SLOAD PUSH2 0xCB7 SWAP1 PUSH3 0x13C680 PUSH2 0x17D2 JUMP JUMPDEST TIMESTAMP LT ISZERO PUSH2 0xCC2 JUMPI PUSH0 DUP1 REVERT JUMPDEST PUSH0 PUSH2 0xCCC CALLER PUSH2 0x1178 JUMP JUMPDEST SWAP1 POP PUSH0 DUP2 GT PUSH2 0xD11 JUMPI PUSH1 0x40 MLOAD PUSH3 0x461BCD PUSH1 0xE5 SHL DUP2 MSTORE PUSH1 0x20 PUSH1 0x4 DUP3 ADD MSTORE PUSH1 0x11 PUSH1 0x24 DUP3 ADD MSTORE PUSH17 0x139BC81C195B991A5B99C81C995DD85C99 PUSH1 0x7A SHL PUSH1 0x44 DUP3 ADD MSTORE PUSH1 0x64 ADD PUSH2 0x547 JUMP JUMPDEST PUSH0 PUSH1 0x1 DUP4 ADD DUP2 SWAP1 SSTORE PUSH1 0x2 DUP4 ADD DUP2 SWAP1 SSTORE PUSH2 0xD28 PUSH2 0xEC4 JUMP JUMPDEST PUSH2 0xD3A DUP4 PUSH8 0xDE0B6B3A7640000 PUSH2 0x181E JUMP JUMPDEST PUSH2 0xD44 SWAP2 SWAP1 PUSH2 0x17B3 JUMP JUMPDEST PUSH1 0x3 SLOAD PUSH1 0x40 MLOAD PUSH4 0x23B872DD PUSH1 0xE0 SHL DUP2 MSTORE PUSH1 0x1 PUSH1 0x1 PUSH1 0xA0 SHL SUB SWAP1 SWAP2 AND PUSH1 0x4 DUP3 ADD MSTORE CALLER PUSH1 0x24 DUP3 ADD MSTORE PUSH1 0x44 DUP2 ADD DUP3 SWAP1 MSTORE SWAP1 SWAP2 POP PUSH20 0x372319BBFFDE74707AED44DD432C675A574A0770 SWAP1 PUSH4 0x23B872DD SWAP1 PUSH1 0x64 ADD JUMPDEST PUSH1 0x20 PUSH1 0x40 MLOAD DUP1 DUP4 SUB DUP2 PUSH0 DUP8 GAS CALL ISZERO DUP1 ISZERO PUSH2 0xDB0 JUMPI RETURNDATASIZE PUSH0 DUP1 RETURNDATACOPY RETURNDATASIZE PUSH0 REVERT JUMPDEST POP POP POP POP PUSH1 0x40 MLOAD RETURNDATASIZE PUSH1 0x1F NOT PUSH1 0x1F DUP3 ADD AND DUP3 ADD DUP1 PUSH1 0x40 MSTORE POP DUP2 ADD SWAP1 PUSH2 0xDD4 SWAP2 SWAP1 PUSH2 0x1803 JUMP JUMPDEST POP POP POP POP JUMP JUMPDEST PUSH0 SLOAD PUSH1 0x1 PUSH1 0x1 PUSH1 0xA0 SHL SUB AND CALLER EQ PUSH2 0xE03 JUMPI PUSH1 0x40 MLOAD PUSH3 0x461BCD PUSH1 0xE5 SHL DUP2 MSTORE PUSH1 0x4 ADD PUSH2 0x547 SWAP1 PUSH2 0x176A JUMP JUMPDEST PUSH1 0xE SSTORE JUMP JUMPDEST PUSH1 0x1 PUSH1 0x1 PUSH1 0xA0 SHL SUB DUP2 AND PUSH0 SWAP1 DUP2 MSTORE PUSH1 0x10 PUSH1 0x20 MSTORE PUSH1 0x40 DUP2 KECCAK256 PUSH1 0x3 DUP2 ADD SLOAD DUP3 SUB PUSH2 0xE32 JUMPI POP PUSH0 SWAP3 SWAP2 POP POP JUMP JUMPDEST PUSH0 PUSH1 0x64 DUP3 PUSH1 0x3 ADD SLOAD PUSH1 0x24 PUSH2 0xE46 SWAP2 SWAP1 PUSH2 0x181E JUMP JUMPDEST PUSH2 0xE50 SWAP2 SWAP1 PUSH2 0x17B3 JUMP JUMPDEST SWAP1 POP DUP2 PUSH1 0x4 ADD SLOAD PUSH3 0x278D00 PUSH2 0xE65 SWAP2 SWAP1 PUSH2 0x17D2 JUMP JUMPDEST TIMESTAMP LT PUSH2 0xE72 JUMPI SWAP4 SWAP3 POP POP POP JUMP JUMPDEST PUSH0 PUSH3 0x15180 PUSH2 0x3E8 DUP5 PUSH1 0x3 ADD SLOAD PUSH1 0xC PUSH2 0xE8B SWAP2 SWAP1 PUSH2 0x181E JUMP JUMPDEST PUSH2 0xE95 SWAP2 SWAP1 PUSH2 0x17B3 JUMP JUMPDEST PUSH2 0xE9F SWAP2 SWAP1 PUSH2 0x17B3 JUMP JUMPDEST SWAP1 POP DUP3 PUSH1 0x4 ADD SLOAD TIMESTAMP PUSH2 0xEB1 SWAP2 SWAP1 PUSH2 0x1835 JUMP JUMPDEST PUSH2 0xEBB SWAP1 DUP3 PUSH2 0x181E JUMP JUMPDEST SWAP6 SWAP5 POP POP POP POP POP JUMP JUMPDEST PUSH1 0x40 DUP1 MLOAD PUSH1 0x2 DUP1 DUP3 MSTORE PUSH1 0x60 DUP3 ADD DUP4 MSTORE PUSH0 SWAP3 DUP4 SWAP3 SWAP2 SWAP1 PUSH1 0x20 DUP4 ADD SWAP1 DUP1 CALLDATASIZE DUP4 CALLDATACOPY ADD SWAP1 POP POP SWAP1 POP PUSH20 0x372319BBFFDE74707AED44DD432C675A574A0770 DUP2 PUSH0 DUP2 MLOAD DUP2 LT PUSH2 0xF0F JUMPI PUSH2 0xF0F PUSH2 0x185C JUMP JUMPDEST PUSH1 0x20 MUL PUSH1 0x20 ADD ADD SWAP1 PUSH1 0x1 PUSH1 0x1 PUSH1 0xA0 SHL SUB AND SWAP1 DUP2 PUSH1 0x1 PUSH1 0x1 PUSH1 0xA0 SHL SUB AND DUP2 MSTORE POP POP PUSH20 0xFB3C077479113DF18F9F51DC282B09BB0461000 DUP2 PUSH1 0x1 DUP2 MLOAD DUP2 LT PUSH2 0xF57 JUMPI PUSH2 0xF57 PUSH2 0x185C JUMP JUMPDEST PUSH1 0x1 PUSH1 0x1 PUSH1 0xA0 SHL SUB SWAP1 SWAP3 AND PUSH1 0x20 SWAP3 DUP4 MUL SWAP2 SWAP1 SWAP2 ADD SWAP1 SWAP2 ADD MSTORE PUSH1 0x40 MLOAD PUSH4 0xD06CA61F PUSH1 0xE0 SHL DUP2 MSTORE PUSH0 SWAP1 PUSH20 0x9AC64CC6E4415144C455BD8E4837FEA55603E5C3 SWAP1 PUSH4 0xD06CA61F SWAP1 PUSH2 0xFB2 SWAP1 PUSH8 0xDE0B6B3A7640000 SWAP1 DUP7 SWAP1 PUSH1 0x4 ADD PUSH2 0x18B3 JUMP JUMPDEST PUSH0 PUSH1 0x40 MLOAD DUP1 DUP4 SUB DUP2 DUP7 GAS STATICCALL ISZERO DUP1 ISZERO PUSH2 0xFCC JUMPI RETURNDATASIZE PUSH0 DUP1 RETURNDATACOPY RETURNDATASIZE PUSH0 REVERT JUMPDEST POP POP POP POP PUSH1 0x40 MLOAD RETURNDATASIZE PUSH0 DUP3 RETURNDATACOPY PUSH1 0x1F RETURNDATASIZE SWAP1 DUP2 ADD PUSH1 0x1F NOT AND DUP3 ADD PUSH1 0x40 MSTORE PUSH2 0xFF3 SWAP2 SWAP1 DUP2 ADD SWAP1 PUSH2 0x18D3 JUMP JUMPDEST SWAP1 POP DUP1 PUSH1 0x1 DUP2 MLOAD DUP2 LT PUSH2 0x1008 JUMPI PUSH2 0x1008 PUSH2 0x185C JUMP JUMPDEST PUSH1 0x20 MUL PUSH1 0x20 ADD ADD MLOAD SWAP3 POP POP POP SWAP1 JUMP JUMPDEST CALLER PUSH0 SWAP1 DUP2 MSTORE PUSH1 0x10 PUSH1 0x20 MSTORE PUSH1 0x40 SWAP1 KECCAK256 PUSH1 0x4 DUP2 ADD SLOAD PUSH2 0x1037 SWAP1 PUSH3 0x278D00 PUSH2 0x17D2 JUMP JUMPDEST TIMESTAMP LT ISZERO PUSH2 0x1042 JUMPI PUSH0 DUP1 REVERT JUMPDEST PUSH0 PUSH2 0x104C CALLER PUSH2 0xE08 JUMP JUMPDEST SWAP1 POP PUSH0 DUP2 GT PUSH2 0x1091 JUMPI PUSH1 0x40 MLOAD PUSH3 0x461BCD PUSH1 0xE5 SHL DUP2 MSTORE PUSH1 0x20 PUSH1 0x4 DUP3 ADD MSTORE PUSH1 0x11 PUSH1 0x24 DUP3 ADD MSTORE PUSH17 0x139BC81C195B991A5B99C81C995DD85C99 PUSH1 0x7A SHL PUSH1 0x44 DUP3 ADD MSTORE PUSH1 0x64 ADD PUSH2 0x547 JUMP JUMPDEST PUSH0 PUSH1 0x3 DUP4 ADD DUP2 SWAP1 SSTORE PUSH1 0x4 DUP4 ADD DUP2 SWAP1 SSTORE PUSH2 0xD28 PUSH2 0xEC4 JUMP JUMPDEST PUSH0 SLOAD PUSH1 0x1 PUSH1 0x1 PUSH1 0xA0 SHL SUB AND CALLER EQ PUSH2 0x10D1 JUMPI PUSH1 0x40 MLOAD PUSH3 0x461BCD PUSH1 0xE5 SHL DUP2 MSTORE PUSH1 0x4 ADD PUSH2 0x547 SWAP1 PUSH2 0x176A JUMP JUMPDEST PUSH1 0xD DUP1 SLOAD PUSH1 0xFF NOT AND SWAP2 ISZERO ISZERO SWAP2 SWAP1 SWAP2 OR SWAP1 SSTORE JUMP JUMPDEST PUSH0 SLOAD PUSH1 0x1 PUSH1 0x1 PUSH1 0xA0 SHL SUB AND CALLER EQ PUSH2 0x110D JUMPI PUSH1 0x40 MLOAD PUSH3 0x461BCD PUSH1 0xE5 SHL DUP2 MSTORE PUSH1 0x4 ADD PUSH2 0x547 SWAP1 PUSH2 0x176A JUMP JUMPDEST PUSH0 DUP1 SLOAD PUSH1 0x40 MLOAD PUSH1 0x1 PUSH1 0x1 PUSH1 0xA0 SHL SUB SWAP1 SWAP2 AND SWAP1 PUSH32 0x8BE0079C531659141344CD1FD0A4F28419497F9722A3DAAFE3B4186F6B6457E0 SWAP1 DUP4 SWAP1 LOG3 PUSH0 DUP1 SLOAD PUSH1 0x1 PUSH1 0x1 PUSH1 0xA0 SHL SUB NOT AND SWAP1 SSTORE JUMP JUMPDEST PUSH0 DUP1 PUSH2 0x1164 PUSH3 0x15180 TIMESTAMP PUSH2 0x17B3 JUMP JUMPDEST PUSH0 SWAP1 DUP2 MSTORE PUSH1 0xF PUSH1 0x20 MSTORE PUSH1 0x40 SWAP1 KECCAK256 SLOAD SWAP3 SWAP2 POP POP JUMP JUMPDEST PUSH1 0x1 PUSH1 0x1 PUSH1 0xA0 SHL SUB DUP2 AND PUSH0 SWAP1 DUP2 MSTORE PUSH1 0x10 PUSH1 0x20 MSTORE PUSH1 0x40 DUP2 KECCAK256 PUSH1 0x1 DUP2 ADD SLOAD DUP3 SUB PUSH2 0x11A2 JUMPI POP PUSH0 SWAP3 SWAP2 POP POP JUMP JUMPDEST PUSH0 PUSH1 0x64 DUP3 PUSH1 0x1 ADD SLOAD PUSH1 0xF PUSH2 0x11B6 SWAP2 SWAP1 PUSH2 0x181E JUMP JUMPDEST PUSH2 0x11C0 SWAP2 SWAP1 PUSH2 0x17B3 JUMP JUMPDEST SWAP1 POP DUP2 PUSH1 0x2 ADD SLOAD PUSH3 0x13C680 PUSH2 0x11D5 SWAP2 SWAP1 PUSH2 0x17D2 JUMP JUMPDEST TIMESTAMP LT PUSH2 0x11E2 JUMPI SWAP4 SWAP3 POP POP POP JUMP JUMPDEST PUSH0 PUSH3 0x15180 PUSH1 0x64 DUP5 PUSH1 0x1 ADD SLOAD PUSH2 0x11F8 SWAP2 SWAP1 PUSH2 0x17B3 JUMP JUMPDEST PUSH2 0x1202 SWAP2 SWAP1 PUSH2 0x17B3 JUMP JUMPDEST SWAP1 POP DUP3 PUSH1 0x2 ADD SLOAD TIMESTAMP PUSH2 0xEB1 SWAP2 SWAP1 PUSH2 0x1835 JUMP JUMPDEST PUSH0 SLOAD PUSH1 0x1 PUSH1 0x1 PUSH1 0xA0 SHL SUB AND CALLER EQ PUSH2 0x123D JUMPI PUSH1 0x40 MLOAD PUSH3 0x461BCD PUSH1 0xE5 SHL DUP2 MSTORE PUSH1 0x4 ADD PUSH2 0x547 SWAP1 PUSH2 0x176A JUMP JUMPDEST PUSH1 0x2 DUP1 SLOAD PUSH1 0x1 PUSH1 0x1 PUSH1 0xA0 SHL SUB SWAP4 DUP5 AND PUSH1 0x1 PUSH1 0x1 PUSH1 0xA0 SHL SUB NOT SWAP2 DUP3 AND OR SWAP1 SWAP2 SSTORE PUSH1 0x3 DUP1 SLOAD SWAP3 SWAP1 SWAP4 AND SWAP2 AND OR SWAP1 SSTORE JUMP JUMPDEST PUSH0 SLOAD PUSH1 0x1 PUSH1 0x1 PUSH1 0xA0 SHL SUB AND CALLER EQ PUSH2 0x1294 JUMPI PUSH1 0x40 MLOAD PUSH3 0x461BCD PUSH1 0xE5 SHL DUP2 MSTORE PUSH1 0x4 ADD PUSH2 0x547 SWAP1 PUSH2 0x176A JUMP JUMPDEST PUSH1 0x40 MLOAD PUSH4 0xA9059CBB PUSH1 0xE0 SHL DUP2 MSTORE PUSH1 0x1 PUSH1 0x1 PUSH1 0xA0 SHL SUB DUP4 DUP2 AND PUSH1 0x4 DUP4 ADD MSTORE PUSH1 0x24 DUP3 ADD DUP4 SWAP1 MSTORE DUP5 AND SWAP1 PUSH4 0xA9059CBB SWAP1 PUSH1 0x44 ADD PUSH2 0xD94 JUMP JUMPDEST PUSH0 SLOAD PUSH1 0x1 PUSH1 0x1 PUSH1 0xA0 SHL SUB AND CALLER EQ PUSH2 0x12F2 JUMPI PUSH1 0x40 MLOAD PUSH3 0x461BCD PUSH1 0xE5 SHL DUP2 MSTORE PUSH1 0x4 ADD PUSH2 0x547 SWAP1 PUSH2 0x176A JUMP JUMPDEST PUSH1 0x6 SWAP5 SWAP1 SWAP5 SSTORE PUSH1 0x7 SWAP3 SWAP1 SWAP3 SSTORE PUSH1 0x8 SSTORE PUSH1 0x9 SSTORE PUSH1 0xA SSTORE JUMP JUMPDEST PUSH0 SLOAD PUSH1 0x1 PUSH1 0x1 PUSH1 0xA0 SHL SUB AND CALLER EQ PUSH2 0x1332 JUMPI PUSH1 0x40 MLOAD PUSH3 0x461BCD PUSH1 0xE5 SHL DUP2 MSTORE PUSH1 0x4 ADD PUSH2 0x547 SWAP1 PUSH2 0x176A JUMP JUMPDEST PUSH1 0xC SSTORE JUMP JUMPDEST PUSH0 SLOAD PUSH1 0x1 PUSH1 0x1 PUSH1 0xA0 SHL SUB AND CALLER EQ PUSH2 0x1360 JUMPI PUSH1 0x40 MLOAD PUSH3 0x461BCD PUSH1 0xE5 SHL DUP2 MSTORE PUSH1 0x4 ADD PUSH2 0x547 SWAP1 PUSH2 0x176A JUMP JUMPDEST PUSH1 0x1 PUSH1 0x1 PUSH1 0xA0 SHL SUB DUP2 AND PUSH2 0x13C5 JUMPI PUSH1 0x40 MLOAD PUSH3 0x461BCD PUSH1 0xE5 SHL DUP2 MSTORE PUSH1 0x20 PUSH1 0x4 DUP3 ADD MSTORE PUSH1 0x26 PUSH1 0x24 DUP3 ADD MSTORE PUSH32 0x4F776E61626C653A206E6577206F776E657220697320746865207A65726F2061 PUSH1 0x44 DUP3 ADD MSTORE PUSH6 0x646472657373 PUSH1 0xD0 SHL PUSH1 0x64 DUP3 ADD MSTORE PUSH1 0x84 ADD PUSH2 0x547 JUMP JUMPDEST PUSH0 DUP1 SLOAD PUSH1 0x40 MLOAD PUSH1 0x1 PUSH1 0x1 PUSH1 0xA0 SHL SUB DUP1 DUP6 AND SWAP4 SWAP3 AND SWAP2 PUSH32 0x8BE0079C531659141344CD1FD0A4F28419497F9722A3DAAFE3B4186F6B6457E0 SWAP2 LOG3 PUSH0 DUP1 SLOAD PUSH1 0x1 PUSH1 0x1 PUSH1 0xA0 SHL SUB NOT AND PUSH1 0x1 PUSH1 0x1 PUSH1 0xA0 SHL SUB SWAP3 SWAP1 SWAP3 AND SWAP2 SWAP1 SWAP2 OR SWAP1 SSTORE JUMP JUMPDEST PUSH1 0x40 DUP1 MLOAD PUSH1 0x2 DUP1 DUP3 MSTORE PUSH1 0x60 DUP3 ADD DUP4 MSTORE PUSH0 SWAP3 PUSH1 0x20 DUP4 ADD SWAP1 DUP1 CALLDATASIZE DUP4 CALLDATACOPY ADD SWAP1 POP POP SWAP1 POP PUSH20 0xFB3C077479113DF18F9F51DC282B09BB0461000 DUP2 PUSH0 DUP2 MLOAD DUP2 LT PUSH2 0x1465 JUMPI PUSH2 0x1465 PUSH2 0x185C JUMP JUMPDEST PUSH1 0x20 MUL PUSH1 0x20 ADD ADD SWAP1 PUSH1 0x1 PUSH1 0x1 PUSH1 0xA0 SHL SUB AND SWAP1 DUP2 PUSH1 0x1 PUSH1 0x1 PUSH1 0xA0 SHL SUB AND DUP2 MSTORE POP POP PUSH20 0x372319BBFFDE74707AED44DD432C675A574A0770 DUP2 PUSH1 0x1 DUP2 MLOAD DUP2 LT PUSH2 0x14AD JUMPI PUSH2 0x14AD PUSH2 0x185C JUMP JUMPDEST PUSH1 0x1 PUSH1 0x1 PUSH1 0xA0 SHL SUB SWAP1 SWAP3 AND PUSH1 0x20 SWAP3 DUP4 MUL SWAP2 SWAP1 SWAP2 ADD SWAP1 SWAP2 ADD MSTORE PUSH1 0x40 MLOAD PUSH4 0xD06CA61F PUSH1 0xE0 SHL DUP2 MSTORE PUSH0 SWAP1 PUSH20 0x9AC64CC6E4415144C455BD8E4837FEA55603E5C3 SWAP1 PUSH4 0xD06CA61F SWAP1 PUSH2 0x1500 SWAP1 DUP7 SWAP1 DUP7 SWAP1 PUSH1 0x4 ADD PUSH2 0x18B3 JUMP JUMPDEST PUSH0 PUSH1 0x40 MLOAD DUP1 DUP4 SUB DUP2 DUP7 GAS STATICCALL ISZERO DUP1 ISZERO PUSH2 0x151A JUMPI RETURNDATASIZE PUSH0 DUP1 RETURNDATACOPY RETURNDATASIZE PUSH0 REVERT JUMPDEST POP POP POP POP PUSH1 0x40 MLOAD RETURNDATASIZE PUSH0 DUP3 RETURNDATACOPY PUSH1 0x1F RETURNDATASIZE SWAP1 DUP2 ADD PUSH1 0x1F NOT AND DUP3 ADD PUSH1 0x40 MSTORE PUSH2 0x1541 SWAP2 SWAP1 DUP2 ADD SWAP1 PUSH2 0x18D3 JUMP JUMPDEST SWAP1 POP PUSH20 0x9AC64CC6E4415144C455BD8E4837FEA55603E5C3 PUSH1 0x1 PUSH1 0x1 PUSH1 0xA0 SHL SUB AND PUSH4 0x5C11D795 DUP5 PUSH1 0x64 PUSH1 0xC SLOAD PUSH1 0x64 PUSH2 0x1578 SWAP2 SWAP1 PUSH2 0x1835 JUMP JUMPDEST DUP6 PUSH1 0x1 DUP2 MLOAD DUP2 LT PUSH2 0x158B JUMPI PUSH2 0x158B PUSH2 0x185C JUMP JUMPDEST PUSH1 0x20 MUL PUSH1 0x20 ADD ADD MLOAD PUSH2 0x159D SWAP2 SWAP1 PUSH2 0x181E JUMP JUMPDEST PUSH2 0x15A7 SWAP2 SWAP1 PUSH2 0x17B3 JUMP JUMPDEST DUP6 PUSH0 TIMESTAMP PUSH1 0x40 MLOAD DUP7 PUSH4 0xFFFFFFFF AND PUSH1 0xE0 SHL DUP2 MSTORE PUSH1 0x4 ADD PUSH2 0x15CA SWAP6 SWAP5 SWAP4 SWAP3 SWAP2 SWAP1 PUSH2 0x198C JUMP JUMPDEST PUSH0 PUSH1 0x40 MLOAD DUP1 DUP4 SUB DUP2 PUSH0 DUP8 DUP1 EXTCODESIZE ISZERO DUP1 ISZERO PUSH2 0x15E1 JUMPI PUSH0 DUP1 REVERT JUMPDEST POP GAS CALL ISZERO DUP1 ISZERO PUSH2 0x15F3 JUMPI RETURNDATASIZE PUSH0 DUP1 RETURNDATACOPY RETURNDATASIZE PUSH0 REVERT JUMPDEST POP POP POP POP POP POP POP JUMP JUMPDEST DUP1 CALLDATALOAD PUSH1 0x1 PUSH1 0x1 PUSH1 0xA0 SHL SUB DUP2 AND DUP2 EQ PUSH2 0x1612 JUMPI PUSH0 DUP1 REVERT JUMPDEST SWAP2 SWAP1 POP JUMP JUMPDEST PUSH0 PUSH1 0x20 DUP3 DUP5 SUB SLT ISZERO PUSH2 0x1627 JUMPI PUSH0 DUP1 REVERT JUMPDEST PUSH2 0x1630 DUP3 PUSH2 0x15FC JUMP JUMPDEST SWAP4 SWAP3 POP POP POP JUMP JUMPDEST PUSH0 DUP1 PUSH1 0x40 DUP4 DUP6 SUB SLT ISZERO PUSH2 0x1648 JUMPI PUSH0 DUP1 REVERT JUMPDEST POP POP DUP1 CALLDATALOAD SWAP3 PUSH1 0x20 SWAP1 SWAP2 ADD CALLDATALOAD SWAP2 POP JUMP JUMPDEST PUSH0 DUP1 PUSH0 PUSH1 0x60 DUP5 DUP7 SUB SLT ISZERO PUSH2 0x1669 JUMPI PUSH0 DUP1 REVERT JUMPDEST PUSH2 0x1672 DUP5 PUSH2 0x15FC JUMP JUMPDEST SWAP6 PUSH1 0x20 DUP6 ADD CALLDATALOAD SWAP6 POP PUSH1 0x40 SWAP1 SWAP5 ADD CALLDATALOAD SWAP4 SWAP3 POP POP POP JUMP JUMPDEST PUSH0 PUSH1 0x20 DUP3 DUP5 SUB SLT ISZERO PUSH2 0x1697 JUMPI PUSH0 DUP1 REVERT JUMPDEST POP CALLDATALOAD SWAP2 SWAP1 POP JUMP JUMPDEST DUP1 ISZERO ISZERO DUP2 EQ PUSH2 0x16AB JUMPI PUSH0 DUP1 REVERT JUMPDEST POP JUMP JUMPDEST PUSH0 PUSH1 0x20 DUP3 DUP5 SUB SLT ISZERO PUSH2 0x16BE JUMPI PUSH0 DUP1 REVERT JUMPDEST DUP2 CALLDATALOAD PUSH2 0x1630 DUP2 PUSH2 0x169E JUMP JUMPDEST PUSH0 DUP1 PUSH1 0x40 DUP4 DUP6 SUB SLT ISZERO PUSH2 0x16DA JUMPI PUSH0 DUP1 REVERT JUMPDEST PUSH2 0x16E3 DUP4 PUSH2 0x15FC JUMP JUMPDEST SWAP2 POP PUSH2 0x16F1 PUSH1 0x20 DUP5 ADD PUSH2 0x15FC JUMP JUMPDEST SWAP1 POP SWAP3 POP SWAP3 SWAP1 POP JUMP JUMPDEST PUSH0 DUP1 PUSH0 PUSH1 0x60 DUP5 DUP7 SUB SLT ISZERO PUSH2 0x170C JUMPI PUSH0 DUP1 REVERT JUMPDEST PUSH2 0x1715 DUP5 PUSH2 0x15FC JUMP JUMPDEST SWAP3 POP PUSH2 0x1723 PUSH1 0x20 DUP6 ADD PUSH2 0x15FC JUMP JUMPDEST SWAP2 POP PUSH1 0x40 DUP5 ADD CALLDATALOAD SWAP1 POP SWAP3 POP SWAP3 POP SWAP3 JUMP JUMPDEST PUSH0 DUP1 PUSH0 DUP1 PUSH0 PUSH1 0xA0 DUP7 DUP9 SUB SLT ISZERO PUSH2 0x1747 JUMPI PUSH0 DUP1 REVERT JUMPDEST POP POP DUP4 CALLDATALOAD SWAP6 PUSH1 0x20 DUP6 ADD CALLDATALOAD SWAP6 POP PUSH1 0x40 DUP6 ADD CALLDATALOAD SWAP5 PUSH1 0x60 DUP2 ADD CALLDATALOAD SWAP5 POP PUSH1 0x80 ADD CALLDATALOAD SWAP3 POP SWAP1 POP JUMP JUMPDEST PUSH1 0x20 DUP1 DUP3 MSTORE DUP2 DUP2 ADD MSTORE PUSH32 0x4F776E61626C653A2063616C6C6572206973206E6F7420746865206F776E6572 PUSH1 0x40 DUP3 ADD MSTORE PUSH1 0x60 ADD SWAP1 JUMP JUMPDEST PUSH4 0x4E487B71 PUSH1 0xE0 SHL PUSH0 MSTORE PUSH1 0x11 PUSH1 0x4 MSTORE PUSH1 0x24 PUSH0 REVERT JUMPDEST PUSH0 DUP3 PUSH2 0x17CD JUMPI PUSH4 0x4E487B71 PUSH1 0xE0 SHL PUSH0 MSTORE PUSH1 0x12 PUSH1 0x4 MSTORE PUSH1 0x24 PUSH0 REVERT JUMPDEST POP DIV SWAP1 JUMP JUMPDEST DUP1 DUP3 ADD DUP1 DUP3 GT ISZERO PUSH2 0x17E5 JUMPI PUSH2 0x17E5 PUSH2 0x179F JUMP JUMPDEST SWAP3 SWAP2 POP POP JUMP JUMPDEST PUSH0 PUSH1 0x1 DUP3 ADD PUSH2 0x17FC JUMPI PUSH2 0x17FC PUSH2 0x179F JUMP JUMPDEST POP PUSH1 0x1 ADD SWAP1 JUMP JUMPDEST PUSH0 PUSH1 0x20 DUP3 DUP5 SUB SLT ISZERO PUSH2 0x1813 JUMPI PUSH0 DUP1 REVERT JUMPDEST DUP2 MLOAD PUSH2 0x1630 DUP2 PUSH2 0x169E JUMP JUMPDEST DUP1 DUP3 MUL DUP2 ISZERO DUP3 DUP3 DIV DUP5 EQ OR PUSH2 0x17E5 JUMPI PUSH2 0x17E5 PUSH2 0x179F JUMP JUMPDEST DUP2 DUP2 SUB DUP2 DUP2 GT ISZERO PUSH2 0x17E5 JUMPI PUSH2 0x17E5 PUSH2 0x179F JUMP JUMPDEST PUSH4 0x4E487B71 PUSH1 0xE0 SHL PUSH0 MSTORE PUSH1 0x41 PUSH1 0x4 MSTORE PUSH1 0x24 PUSH0 REVERT JUMPDEST PUSH4 0x4E487B71 PUSH1 0xE0 SHL PUSH0 MSTORE PUSH1 0x32 PUSH1 0x4 MSTORE PUSH1 0x24 PUSH0 REVERT JUMPDEST PUSH0 DUP2 MLOAD DUP1 DUP5 MSTORE PUSH1 0x20 DUP1 DUP6 ADD SWAP5 POP PUSH1 0x20 DUP5 ADD PUSH0 JUMPDEST DUP4 DUP2 LT ISZERO PUSH2 0x18A8 JUMPI DUP2 MLOAD PUSH1 0x1 PUSH1 0x1 PUSH1 0xA0 SHL SUB AND DUP8 MSTORE SWAP6 DUP3 ADD SWAP6 SWAP1 DUP3 ADD SWAP1 PUSH1 0x1 ADD PUSH2 0x1883 JUMP JUMPDEST POP SWAP5 SWAP6 SWAP5 POP POP POP POP POP JUMP JUMPDEST DUP3 DUP2 MSTORE PUSH1 0x40 PUSH1 0x20 DUP3 ADD MSTORE PUSH0 PUSH2 0x18CB PUSH1 0x40 DUP4 ADD DUP5 PUSH2 0x1870 JUMP JUMPDEST SWAP5 SWAP4 POP POP POP POP JUMP JUMPDEST PUSH0 PUSH1 0x20 DUP1 DUP4 DUP6 SUB SLT ISZERO PUSH2 0x18E4 JUMPI PUSH0 DUP1 REVERT JUMPDEST DUP3 MLOAD PUSH8 0xFFFFFFFFFFFFFFFF DUP1 DUP3 GT ISZERO PUSH2 0x18FB JUMPI PUSH0 DUP1 REVERT JUMPDEST DUP2 DUP6 ADD SWAP2 POP DUP6 PUSH1 0x1F DUP4 ADD SLT PUSH2 0x190E JUMPI PUSH0 DUP1 REVERT JUMPDEST DUP2 MLOAD DUP2 DUP2 GT ISZERO PUSH2 0x1920 JUMPI PUSH2 0x1920 PUSH2 0x1848 JUMP JUMPDEST DUP1 PUSH1 0x5 SHL PUSH1 0x40 MLOAD PUSH1 0x1F NOT PUSH1 0x3F DUP4 ADD AND DUP2 ADD DUP2 DUP2 LT DUP6 DUP3 GT OR ISZERO PUSH2 0x1945 JUMPI PUSH2 0x1945 PUSH2 0x1848 JUMP JUMPDEST PUSH1 0x40 MSTORE SWAP2 DUP3 MSTORE DUP5 DUP3 ADD SWAP3 POP DUP4 DUP2 ADD DUP6 ADD SWAP2 DUP9 DUP4 GT ISZERO PUSH2 0x1962 JUMPI PUSH0 DUP1 REVERT JUMPDEST SWAP4 DUP6 ADD SWAP4 JUMPDEST DUP3 DUP6 LT ISZERO PUSH2 0x1980 JUMPI DUP5 MLOAD DUP5 MSTORE SWAP4 DUP6 ADD SWAP4 SWAP3 DUP6 ADD SWAP3 PUSH2 0x1967 JUMP JUMPDEST SWAP9 SWAP8 POP POP POP POP POP POP POP POP JUMP JUMPDEST DUP6 DUP2 MSTORE DUP5 PUSH1 0x20 DUP3 ADD MSTORE PUSH1 0xA0 PUSH1 0x40 DUP3 ADD MSTORE PUSH0 PUSH2 0x19AA PUSH1 0xA0 DUP4 ADD DUP7 PUSH2 0x1870 JUMP JUMPDEST PUSH1 0x1 PUSH1 0x1 PUSH1 0xA0 SHL SUB SWAP5 SWAP1 SWAP5 AND PUSH1 0x60 DUP4 ADD MSTORE POP PUSH1 0x80 ADD MSTORE SWAP4 SWAP3 POP POP POP JUMP INVALID LOG2 PUSH5 0x6970667358 0x22 SLT KECCAK256 CALLDATALOAD DUP10 CALLDATACOPY NOT CALLDATALOAD PUSH15 0x267A90546395B2C3ED1C73B8A925E9 0xED 0x2E 0xE1 0xEF DUP14 0x2C 0xFC 0xC8 PUSH24 0x9C1E64736F6C634300081800330000000000000000000000 "
		},
		"gasEstimates": {
			"creation": {
				"codeDepositCost": "1330600",
				"executionCost": "infinite",
				"totalCost": "infinite"
			},
			"external": {
				"ROUTER()": "261",
				"USDT()": "326",
				"ZY()": "326",
				"claim15()": "infinite",
				"claim30()": "infinite",
				"firstAddr()": "2469",
				"getStakedToday()": "2476",
				"marketingAddr()": "2448",
				"maxAmount()": "2350",
				"maxSupplyPerDay()": "2372",
				"minAmount()": "2394",
				"owner()": "2374",
				"pendingReward15(address)": "infinite",
				"pendingReward30(address)": "infinite",
				"ratio1()": "2350",
				"ratio2()": "2328",
				"ratio3()": "2327",
				"ratio4()": "2416",
				"ratio5()": "2395",
				"renounceOwnership()": "30294",
				"rescueERC20(address,address,uint256)": "infinite",
				"rescueETH(address)": "infinite",
				"setAddrs(address,address)": "infinite",
				"setMaxSupplyPerDay(uint256)": "24507",
				"setMinAndMaxAmount(uint256,uint256)": "46665",
				"setRatios(uint256,uint256,uint256,uint256,uint256)": "113035",
				"setSlippage(uint256)": "24549",
				"setStart(bool)": "26749",
				"slippage()": "2373",
				"stake(address,uint256,uint256)": "infinite",
				"stakedPerDay(uint256)": "2492",
				"start()": "2376",
				"totalStaked()": "2351",
				"transferOwnership(address)": "30505",
				"userInfo(address)": "15461",
				"vault()": "2468",
				"zyPrice()": "infinite"
			},
			"internal": {
				"_buy(uint256)": "infinite"
			}
		},
		"methodIdentifiers": {
			"ROUTER()": "32fe7b26",
			"USDT()": "c54e44eb",
			"ZY()": "6d090bd5",
			"claim15()": "0e8ff105",
			"claim30()": "390d1219",
			"firstAddr()": "c63a695c",
			"getStakedToday()": "7e635770",
			"marketingAddr()": "3ff42b92",
			"maxAmount()": "5f48f393",
			"maxSupplyPerDay()": "c3039351",
			"minAmount()": "9b2cb5d8",
			"owner()": "8da5cb5b",
			"pendingReward15(address)": "847239a7",
			"pendingReward30(address)": "2523ff0c",
			"ratio1()": "9665e82a",
			"ratio2()": "4a5064a9",
			"ratio3()": "d3a8eb4b",
			"ratio4()": "b1bb9cd7",
			"ratio5()": "87b14302",
			"renounceOwnership()": "715018a6",
			"rescueERC20(address,address,uint256)": "b2118a8d",
			"rescueETH(address)": "04824e70",
			"setAddrs(address,address)": "9718a93b",
			"setMaxSupplyPerDay(uint256)": "12e0b6de",
			"setMinAndMaxAmount(uint256,uint256)": "058df89f",
			"setRatios(uint256,uint256,uint256,uint256,uint256)": "e078e9f7",
			"setSlippage(uint256)": "f0fa55a9",
			"setStart(bool)": "68e24327",
			"slippage()": "3e032a3b",
			"stake(address,uint256,uint256)": "0c51b88f",
			"stakedPerDay(uint256)": "166df0d1",
			"start()": "be9a6555",
			"totalStaked()": "817b1cd2",
			"transferOwnership(address)": "f2fde38b",
			"userInfo(address)": "1959a002",
			"vault()": "fbfa77cf",
			"zyPrice()": "30b9ea28"
		}
	},
	"abi": [
		{
			"inputs": [],
			"stateMutability": "nonpayable",
			"type": "constructor"
		},
		{
			"anonymous": false,
			"inputs": [
				{
					"indexed": true,
					"internalType": "address",
					"name": "previousOwner",
					"type": "address"
				},
				{
					"indexed": true,
					"internalType": "address",
					"name": "newOwner",
					"type": "address"
				}
			],
			"name": "OwnershipTransferred",
			"type": "event"
		},
		{
			"inputs": [],
			"name": "ROUTER",
			"outputs": [
				{
					"internalType": "address",
					"name": "",
					"type": "address"
				}
			],
			"stateMutability": "view",
			"type": "function"
		},
		{
			"inputs": [],
			"name": "USDT",
			"outputs": [
				{
					"internalType": "address",
					"name": "",
					"type": "address"
				}
			],
			"stateMutability": "view",
			"type": "function"
		},
		{
			"inputs": [],
			"name": "ZY",
			"outputs": [
				{
					"internalType": "address",
					"name": "",
					"type": "address"
				}
			],
			"stateMutability": "view",
			"type": "function"
		},
		{
			"inputs": [],
			"name": "claim15",
			"outputs": [],
			"stateMutability": "nonpayable",
			"type": "function"
		},
		{
			"inputs": [],
			"name": "claim30",
			"outputs": [],
			"stateMutability": "nonpayable",
			"type": "function"
		},
		{
			"inputs": [],
			"name": "firstAddr",
			"outputs": [
				{
					"internalType": "address",
					"name": "",
					"type": "address"
				}
			],
			"stateMutability": "view",
			"type": "function"
		},
		{
			"inputs": [],
			"name": "getStakedToday",
			"outputs": [
				{
					"internalType": "uint256",
					"name": "",
					"type": "uint256"
				}
			],
			"stateMutability": "view",
			"type": "function"
		},
		{
			"inputs": [],
			"name": "marketingAddr",
			"outputs": [
				{
					"internalType": "address",
					"name": "",
					"type": "address"
				}
			],
			"stateMutability": "view",
			"type": "function"
		},
		{
			"inputs": [],
			"name": "maxAmount",
			"outputs": [
				{
					"internalType": "uint256",
					"name": "",
					"type": "uint256"
				}
			],
			"stateMutability": "view",
			"type": "function"
		},
		{
			"inputs": [],
			"name": "maxSupplyPerDay",
			"outputs": [
				{
					"internalType": "uint256",
					"name": "",
					"type": "uint256"
				}
			],
			"stateMutability": "view",
			"type": "function"
		},
		{
			"inputs": [],
			"name": "minAmount",
			"outputs": [
				{
					"internalType": "uint256",
					"name": "",
					"type": "uint256"
				}
			],
			"stateMutability": "view",
			"type": "function"
		},
		{
			"inputs": [],
			"name": "owner",
			"outputs": [
				{
					"internalType": "address",
					"name": "",
					"type": "address"
				}
			],
			"stateMutability": "view",
			"type": "function"
		},
		{
			"inputs": [
				{
					"internalType": "address",
					"name": "user",
					"type": "address"
				}
			],
			"name": "pendingReward15",
			"outputs": [
				{
					"internalType": "uint256",
					"name": "",
					"type": "uint256"
				}
			],
			"stateMutability": "view",
			"type": "function"
		},
		{
			"inputs": [
				{
					"internalType": "address",
					"name": "user",
					"type": "address"
				}
			],
			"name": "pendingReward30",
			"outputs": [
				{
					"internalType": "uint256",
					"name": "",
					"type": "uint256"
				}
			],
			"stateMutability": "view",
			"type": "function"
		},
		{
			"inputs": [],
			"name": "ratio1",
			"outputs": [
				{
					"internalType": "uint256",
					"name": "",
					"type": "uint256"
				}
			],
			"stateMutability": "view",
			"type": "function"
		},
		{
			"inputs": [],
			"name": "ratio2",
			"outputs": [
				{
					"internalType": "uint256",
					"name": "",
					"type": "uint256"
				}
			],
			"stateMutability": "view",
			"type": "function"
		},
		{
			"inputs": [],
			"name": "ratio3",
			"outputs": [
				{
					"internalType": "uint256",
					"name": "",
					"type": "uint256"
				}
			],
			"stateMutability": "view",
			"type": "function"
		},
		{
			"inputs": [],
			"name": "ratio4",
			"outputs": [
				{
					"internalType": "uint256",
					"name": "",
					"type": "uint256"
				}
			],
			"stateMutability": "view",
			"type": "function"
		},
		{
			"inputs": [],
			"name": "ratio5",
			"outputs": [
				{
					"internalType": "uint256",
					"name": "",
					"type": "uint256"
				}
			],
			"stateMutability": "view",
			"type": "function"
		},
		{
			"inputs": [],
			"name": "renounceOwnership",
			"outputs": [],
			"stateMutability": "nonpayable",
			"type": "function"
		},
		{
			"inputs": [
				{
					"internalType": "address",
					"name": "token",
					"type": "address"
				},
				{
					"internalType": "address",
					"name": "to",
					"type": "address"
				},
				{
					"internalType": "uint256",
					"name": "amount",
					"type": "uint256"
				}
			],
			"name": "rescueERC20",
			"outputs": [],
			"stateMutability": "nonpayable",
			"type": "function"
		},
		{
			"inputs": [
				{
					"internalType": "address",
					"name": "to",
					"type": "address"
				}
			],
			"name": "rescueETH",
			"outputs": [],
			"stateMutability": "nonpayable",
			"type": "function"
		},
		{
			"inputs": [
				{
					"internalType": "address",
					"name": "_marketingAddr",
					"type": "address"
				},
				{
					"internalType": "address",
					"name": "_vault",
					"type": "address"
				}
			],
			"name": "setAddrs",
			"outputs": [],
			"stateMutability": "nonpayable",
			"type": "function"
		},
		{
			"inputs": [
				{
					"internalType": "uint256",
					"name": "_maxSupplyPerDay",
					"type": "uint256"
				}
			],
			"name": "setMaxSupplyPerDay",
			"outputs": [],
			"stateMutability": "nonpayable",
			"type": "function"
		},
		{
			"inputs": [
				{
					"internalType": "uint256",
					"name": "_minAmount",
					"type": "uint256"
				},
				{
					"internalType": "uint256",
					"name": "_maxAmount",
					"type": "uint256"
				}
			],
			"name": "setMinAndMaxAmount",
			"outputs": [],
			"stateMutability": "nonpayable",
			"type": "function"
		},
		{
			"inputs": [
				{
					"internalType": "uint256",
					"name": "_ratio1",
					"type": "uint256"
				},
				{
					"internalType": "uint256",
					"name": "_ratio2",
					"type": "uint256"
				},
				{
					"internalType": "uint256",
					"name": "_ratio3",
					"type": "uint256"
				},
				{
					"internalType": "uint256",
					"name": "_ratio4",
					"type": "uint256"
				},
				{
					"internalType": "uint256",
					"name": "_ratio5",
					"type": "uint256"
				}
			],
			"name": "setRatios",
			"outputs": [],
			"stateMutability": "nonpayable",
			"type": "function"
		},
		{
			"inputs": [
				{
					"internalType": "uint256",
					"name": "_slippage",
					"type": "uint256"
				}
			],
			"name": "setSlippage",
			"outputs": [],
			"stateMutability": "nonpayable",
			"type": "function"
		},
		{
			"inputs": [
				{
					"internalType": "bool",
					"name": "_start",
					"type": "bool"
				}
			],
			"name": "setStart",
			"outputs": [],
			"stateMutability": "nonpayable",
			"type": "function"
		},
		{
			"inputs": [],
			"name": "slippage",
			"outputs": [
				{
					"internalType": "uint256",
					"name": "",
					"type": "uint256"
				}
			],
			"stateMutability": "view",
			"type": "function"
		},
		{
			"inputs": [
				{
					"internalType": "address",
					"name": "inviter",
					"type": "address"
				},
				{
					"internalType": "uint256",
					"name": "usdtAmount",
					"type": "uint256"
				},
				{
					"internalType": "uint256",
					"name": "lockDays",
					"type": "uint256"
				}
			],
			"name": "stake",
			"outputs": [],
			"stateMutability": "nonpayable",
			"type": "function"
		},
		{
			"inputs": [
				{
					"internalType": "uint256",
					"name": "",
					"type": "uint256"
				}
			],
			"name": "stakedPerDay",
			"outputs": [
				{
					"internalType": "uint256",
					"name": "",
					"type": "uint256"
				}
			],
			"stateMutability": "view",
			"type": "function"
		},
		{
			"inputs": [],
			"name": "start",
			"outputs": [
				{
					"internalType": "bool",
					"name": "",
					"type": "bool"
				}
			],
			"stateMutability": "view",
			"type": "function"
		},
		{
			"inputs": [],
			"name": "totalStaked",
			"outputs": [
				{
					"internalType": "uint256",
					"name": "",
					"type": "uint256"
				}
			],
			"stateMutability": "view",
			"type": "function"
		},
		{
			"inputs": [
				{
					"internalType": "address",
					"name": "newOwner",
					"type": "address"
				}
			],
			"name": "transferOwnership",
			"outputs": [],
			"stateMutability": "nonpayable",
			"type": "function"
		},
		{
			"inputs": [
				{
					"internalType": "address",
					"name": "",
					"type": "address"
				}
			],
			"name": "userInfo",
			"outputs": [
				{
					"internalType": "address",
					"name": "inviter",
					"type": "address"
				},
				{
					"internalType": "uint256",
					"name": "balance15",
					"type": "uint256"
				},
				{
					"internalType": "uint256",
					"name": "startTime15",
					"type": "uint256"
				},
				{
					"internalType": "uint256",
					"name": "balance30",
					"type": "uint256"
				},
				{
					"internalType": "uint256",
					"name": "startTime30",
					"type": "uint256"
				},
				{
					"internalType": "uint256",
					"name": "sons",
					"type": "uint256"
				},
				{
					"internalType": "uint256",
					"name": "rewards",
					"type": "uint256"
				}
			],
			"stateMutability": "view",
			"type": "function"
		},
		{
			"inputs": [],
			"name": "vault",
			"outputs": [
				{
					"internalType": "address",
					"name": "",
					"type": "address"
				}
			],
			"stateMutability": "view",
			"type": "function"
		},
		{
			"inputs": [],
			"name": "zyPrice",
			"outputs": [
				{
					"internalType": "uint256",
					"name": "",
					"type": "uint256"
				}
			],
			"stateMutability": "view",
			"type": "function"
		}
	]
}